:020000040800F2
:10000000D006002021020008D51000089D1000082D
:10001000D1100008BD0600081D11000800000000F6
:1000200000000000000000000000000005110008B2
:10003000C106000800000000D910000809110008DE
:100040003B0200083B0200083B0200083B0200089C
:100050003B0200083B0200083B0200083B0200088C
:100060003B0200083B0200083B0200083B0200087C
:100070003B0200083B0200083B0200083B0200086C
:100080003B0200083B0200083B0200083B0200085C
:100090003B0200083B0200083B0200083B0200084C
:1000A0003B020008111100083B0200083B02000857
:1000B0003B0200083B0200083B0200083B0200082C
:1000C0003B0200083B0200083B0200083B0200081C
:1000D0003B0200083B0200083B0200083B0200080C
:1000E0003B0200083B0200083B0200083B020008FC
:1000F0003B0200083B0200083B0200083B020008EC
:100100003B0200083B0200083B0200083B020008DB
:100110003B0200083B0200083B0200083B020008CB
:100120003B0200083B0200083B0200083B020008BB
:100130003B0200083B0200083B0200083B020008AB
:100140003B0200083B0200083B0200083B0200089B
:100150003B0200083B0200083B0200083B0200088B
:100160003B0200083B0200083B0200083B0200087B
:100170003B0200083B0200083B02000800000000B0
:100180003B02000800F002F800F03AF80AA090E8FC
:10019000000C82448344AAF10107DA4501D100F042
:1001A0002FF8AFF2090EBAE80F0013F0010F18BFD5
:1001B000FB1A43F00103184780110000A011000052
:1001C000103A24BF78C878C1FAD8520724BF30C883
:1001D00030C144BF04680C60704700000023002455
:1001E00000250026103A28BF78C1FBD8520728BF47
:1001F00030C148BF0B6070471FB51FBD10B510BDA3
:1002000000F0D0F81146FFF7F7FF00F089FF00F08B
:10021000EEF803B4FFF7F2FF03BC00F0F5F80000BE
:100220000948804709480047FEE7FEE7FEE7FEE78A
:10023000FEE7FEE7FEE7FEE7FEE7FEE704480549C6
:10024000054A064B704700000D11000885010008A3
:10025000D0000020D0060020D0020020D0020020D4
:1002600053EA020C00F069802DE9F04B4FF00006D4
:10027000002B1FBFB3FA83F503FA05F424FA05F641
:100280005E4012BF1643B2FA82F502FA05F4C5F1D8
:1002900020051EBF22FA05FC44EA0C04203556EA6C
:1002A000044C4FEA144418BF641C4FF000084FF090
:1002B0000009904271EB030C39D3002919BFB1FA40
:1002C00081F701FA07F6B0FA80F700FA07F6C7F1EE
:1002D00020071EBF20FA07FC46EA0C062037B6FBB3
:1002E000F4FCA7EB0507103F07F01F0BCBF120062E
:1002F0002CFA06F60CFA0BFB44BFB3460026202F5F
:10030000A4BF5E464FF0000B5BEA060C08BF4FF03F
:10031000010B19EB0B0948EB0608ABFB027C06FB53
:1003200002CC0BFB03CCC01B71EB0C01C1E70B46ED
:10033000024641464846BDE8F08B13B5084318BF56
:100340004FF0FF300146AFF30080BDE81C4070471E
:100350004FF0000200B5134694469646203922BF5E
:10036000A0E80C50A0E80C50B1F12001BFF4F7AFA9
:10037000090728BFA0E80C5048BF0CC05DF804EB8B
:10038000890028BF40F8042B08BF704748BF20F8F9
:10039000022B11F0804F18BF00F8012B70477047F7
:1003A00070477047754600F02BF8AE460500694669
:1003B000534620F00700854618B020B5FFF73EFFF2
:1003C000BDE820404FF000064FF000074FF0000856
:1003D0004FF0000BAC46ACE8C009ACE8C009ACE893
:1003E000C009ACE8C00921F007018D46704710B57F
:1003F0000446AFF300802046BDE81040FFF709BF78
:10040000004870471000002001491820ABBEFEE7ED
:1004100026000200704700002DE9F04381B040F251
:100420007004C2F200049146627898460E46012A92
:10043000074619D09ABB01200121012500F030FEAA
:100440000220012100F02CFE4FBB6570012000F05E
:1004500045FE20BB0A2000F035F9012000F03EFEE9
:100460000028F7D01BE000BFE088C1087C2905D830
:100470000120002100F014FE0AE000BF00097C28E2
:1004800004D80120012100F00BFE01E00020E080F3
:10049000E0881430E080142000F014F987B3A078CD
:1004A00001281BD0002846D101200121012500F0A0
:1004B000F7FD0220012100F0F3FDE6BBA57002204C
:1004C00000F00CFEB8BB00BF0A2000F0FBF80220D1
:1004D00000F004FE0028F7D02DE000BFE088C1083E
:1004E0007C2905D80220002100F0DAFD1CE000BFC5
:1004F00000097C2816D80220012100F0D1FD13E06C
:1005000000206070012000F0E9FD0028C7D100BF85
:100510000A2000F0D7F8012000F0E0FD0028F7D015
:10052000BDE700BF0020E080E0881430E0801420A8
:1005300000F0C8F8D6B3E07801281DD0002852D1C9
:1005400001200121012500F0ABFD0220012100F076
:10055000A7FDB9F1000F46D1E570032000F0BEFD04
:10056000002840D10A2000F0ADF8032000F0B6FDCD
:100570000028F7D037E000BFE088C1087C2909D8FF
:100580000120002100F08CFD0220012100F088FDF7
:1005900020E000BF00097C281AD80120012100F0CA
:1005A0007FFD0220002100F07BFD13E00020A07001
:1005B000022000F093FD0028BDD100BF0A2000F00A
:1005C00081F8022000F08AFD0028F7D0B3E700BFD1
:1005D0000020E080E0881430E080142000F072F801
:1005E000B9F1000F3AD0207901281DD0002861D13F
:1005F00001200121012500F053FD0220012100F01E
:100600004FFDB8F1000F55D10420257100F066FDB3
:1006100000284FD10A2000F055F8042000F05EFDBC
:100620000028F7D046E000BFE088C1087C2909D83F
:100630000120002100F034FD0220002100F030FDF7
:1006400020E000BF00097C281AD80120012100F019
:1006500027FD0220012100F023FD13E00020E070BF
:10066000032000F03BFD0028BDD100BF0A2000F0B0
:1006700029F8032000F032FD0028F7D0B3E700BFCF
:100680000020E080E0881430E080142000F01AF8A8
:10069000B8F1000F0ED100202071042000F01EFDE3
:1006A00040B900BF0A2000F00DF8042000F016FD4C
:1006B0000028F7D001B0BDE8F0830000FEE700009D
:1006C00070470000B0B5044600F0F0F8054640F26F
:1006D0000000C2F200000078611C18BF044400BF93
:1006E00000F0E4F8401BA042FAD3B0BD2DE9F04F72
:1006F00082B00C68002C00F0C98000F13E4742F245
:10070000000507F1FF77C4F20205092243F6004E07
:100710004FEAB726A84208BF0822C4F2010E082EED
:1007200038BF4FEAB722002600274FF0000800929A
:100730000BE000BF0C6808F1010834FA08F207F179
:10074000040706F1020600F0A180012202FA08FC6B
:1007500014EA0C09EED0D1F804B003220BF0030424
:10076000651EB240012D6FEA020A11D88268CD6879
:1007700002EA0A02B5402A4382604268CBF30015C0
:1007800022EA0C0205FA08F52A43426004E000BFA1
:10079000032C01D103241DE0C2688D6802EA0A021D
:1007A000B5402A43022CC26014D16FF0030202EA62
:1007B00058020244D2F820C007F01C040F230D6930
:1007C000A3402CEA0303A5402B431362D1F804B0E5
:1007D0000BF00304026804FA06F302EA0A021A4361
:1007E0001BF4403F0260A5D0002243F6440301926F
:1007F000C4F202031A684FF6084C42F480421A60B1
:100800001A68CFF6FF7C02F480420192019A28F028
:100810000302724452F80C3007F00C050F24AC4070
:10082000A343009C04FA05F52B4342F80C30DEF894
:1008300008204B6842EA090543F60C4CDC0258BF1D
:1008400022EA0905CEF80850C4F2010CDCF80020B9
:100850009C0242EA090558BF22EA0905CCF800507B
:10086000DEF804209C0342EA090558BF22EA090584
:10087000CEF80450DEF80020DB0342EA090558BF39
:1008800022EA0905CEF8005054E700BF02B0BDE8E7
:10089000F08F00000069084018BF01207047000079
:1008A000002A08BF090481617047000040F2CC00B3
:1008B000C2F200000068704740F2000040F2CC0134
:1008C000C2F20000C2F2000100780A681044086019
:1008D0007047000080B543F60040C4F20200016892
:1008E00041F400710160016841F4806101600168B8
:1008F00041F480710160032000F074F80F2000F0D3
:1009000005F800F027F8002080BD000070B540F227
:100910000006C2F2000640F208013278C2F200017D
:100920004FF47A730968B3FBF2F20446B1FBF2F1BB
:10093000084600F0E7FA0F2C4FF0010508D838B947
:100940004FF0FF3021460022002500F01FF87460B0
:10095000284670BD82B0002043F640010190C4F2E9
:1009600002014A6842F480424A604A6802F48042C6
:100970000192019A0090086840F080500860086871
:1009800000F080500090009802B0704710B54EF60D
:100990000C5CCEF2000CDCF80030C3F3022E8EF0BB
:1009A0000704042C28BF0424BEF103034FF0FF3ECC
:1009B0000EFA04F438BF0023A14399400EFA03F362
:1009C0009A43114300F00F0200F160430901043A19
:1009D00003F564436244002848BF02F10C03197018
:1009E00010BD00004EF60C51CEF200010A684FF621
:1009F000FF031A4060F30A2242F0806040F0FD706D
:100A0000086070472DE9F041002800F0C78043F6E8
:100A10000808C4F202080446D8F8F8030D4600F0AE
:100A20000F00884208D288F8F853D8F8F80300F08D
:100A30000F00A84240F0B2802068810717D5410717
:100A400005D5D8F8001041F4E051C8F800100107AE
:100A500005D5D8F8001041F46041C8F80010D8F866
:100A60000010A26821F0F0011143C8F80010C0077F
:100A700020D1D8F8F80300F00F00A84208D988F870
:100A8000F853D8F8F80300F00F00A84240F0868031
:100A9000206841071CD4000724D4D8F8000000F0D7
:100AA0000C0008282DD004284ED147F64000C0F293
:100AB0007D104DE06068022864D001286AD158F8A2
:100AC000081C89035CBF0120BDE8F0816AE000BF1B
:100AD000D8F80010E26821F4E0511143C8F8001082
:100AE0000007DAD5D8F80000216920F4604040EA18
:100AF000C100C8F80000D8F8000000F00C00082879
:100B0000D1D158F8040C58F8041C58F8043C490298
:100B100047F64001C0F27D1100F03F02C3F3881098
:100B20005CBF42F20041C0F2F401A1FB00010023CE
:100B3000FFF796FB58F8041C0222C1F3014102EBB7
:100B40004101B0FBF1F003E042F20040C0F2F400DA
:100B5000D8F8001041F22632C1F30311C0F60002AA
:100B6000515C40F2080220FA01F140F20400C2F2A6
:100B700000000068C2F200021160FFF7C7FE00200B
:100B8000BDE8F08158F8081C89015CBF0120BDE870
:100B9000F08107E058F8081C890703D40120BDE85C
:100BA000F08100BFD8F8001021F003010843C8F815
:100BB0000000FFF77BFE064641F28837D8F80000B8
:100BC000616800F00C00B0EB810F3FF452AFFFF70B
:100BD0006DFE801BB842F1D90320BDE8F081000012
:100BE0002DE9F04182B0002800F08E8004460078A4
:100BF00043F60006C007C4F202062FD0B06800F02A
:100C00000C00042806D13068800327D5606828BB13
:100C10007AE000BFB06800F00C00082802D17068CC
:100C20004002F0D46068B0706568FFF73FFE002DA9
:100C3000054610D03068800310D4FFF737FE401B04
:100C40006428F7D9F7E000BFFFF730FE401B6428A7
:100C50004FF0030054D830688003F5D42078800723
:100C60001AD5B06810F00C0F09D0B06800F00C0075
:100C7000082840F091807068400200F18D80306853
:100C8000800702D5E06801283ED13068216920F054
:100C9000F80040EAC10030602078000738D420789E
:100CA00040074DD4A56955B3B06800F00C00082882
:100CB00040F0C680012D27D07068E16900F4800201
:100CC0008A4221D1216A00F03F028A421CD147F6B4
:100CD000C071626A0140B1EB821F15D1A16A4FF663
:100CE000FF73C903994300F44032A1F580318A4271
:100CF0000AD1E16A00F07060B0EB016F04D100200E
:100D000002B0BDE8F08100BF012002B0BDE8F08173
:100D10006069002840F20000C4F247207CD0012125
:100D2000C0F8801EFFF7C2FD054600BF706F800748
:100D3000B5D4FFF7BBFD401B0228F7D97BE000BF0D
:100D4000306C10F080580AD100200190306C40F0D7
:100D500080503064306C00F080500190019847F270
:100D60000007C4F20007386840F4807038603868C3
:100D7000C00527D4386840F480703860FFF796FDCE
:100D8000054600BF3868C0051CD4FFF78FFD401B27
:100D90000228F7D94FE000BFE068002872D0002099
:100DA000C4F2472001210160FFF780FD054600BF26
:100DB000306880073FF569AFFFF778FD401B0228D8
:100DC000F6D938E0A06886F87000A568FFF76EFDD8
:100DD000002D054641F2883712D000BF306F8007E2
:100DE00011D4FFF763FD401BB842F7D923E000BFE1
:100DF000FFF75CFD401BB8424FF003003FF680AFA9
:100E0000306F8007F4D4B8F1000F7FF44BAF306C33
:100E100020F08050306445E70021C0F8801EFFF7C5
:100E200045FD0546706F80077FF539AFFFF73EFD42
:100E3000401B0228F6D9032002B0BDE8F08100BFB4
:100E40000027C4F2472700203866FFF72FFD022D48
:100E500005460BD13068800128D5FFF727FD401BE0
:100E600064284FF00300F5D94AE700BF30688001DD
:100E70007FF545AFFFF71AFD401B64284FF00300D4
:100E8000F4D93DE70020C4F2472000210160FFF7BC
:100E90000DFD0546306880077FF5FEAEFFF706FDC5
:100EA000401B02284FF00300F4D929E7706848F28C
:100EB0000001CFF2BC0104F11C0500EA010C2ECDAB
:100EC000E46A41EA0C01ED034FF6FF70114325EA95
:100ED000000041EA8311A0F5803041EA0461084333
:100EE000706001203866FFF7E1FC0446306880013D
:100EF0003FF505AFFFF7DAFC001B64284FF0030055
:100F0000F4D9FDE6411E0020B0EB116F1CBF01209B
:100F100070474EF21002CEF2000251604EF623519D
:100F2000CEF20001F0230B70072190601160704732
:100F300070470000704700007047000070B504461D
:100F40000068C5680669B10716D515F0020113D00F
:100F50006FF002010161012121778069800703D0D0
:100F60002046FFF7E9FF05E0204600F08FF8204615
:100F700000F08EF800202077700719D515F00400D6
:100F800016D020686FF00401016102212177806989
:100F900010F4407F04D02046FFF7CEFF06E000BFEC
:100FA000204600F073F8204600F072F80020207709
:100FB000300717D515F0080014D020686FF008012D
:100FC000016104212177C069800703D02046FFF723
:100FD000B3FF05E0204600F059F8204600F058F82D
:100FE00000202077F00619D515F0100016D02068E3
:100FF0006FF01001016108212177C06910F4407F72
:1010000004D02046FFF798FF06E000BF204600F01E
:101010003DF8204600F03CF800202077F00718BF8C
:1010200015F0010002D1300609D412E020686FF0FB
:1010300001010161204600F02DF8300609D515F0B8
:10104000800006D020686FF0800101612046FFF724
:101050006FFF700609D515F0400006D020686FF0CC
:1010600040010161204600F017F8B00658BF70BD7E
:1010700015F0200008D021686FF0200220460A6198
:10108000BDE87040FFF756BF70BD0000704700001C
:10109000704700007047000070470000FEE7000046
:1010A00002280A460AD0012818BF70470020C4F25F
:1010B00002004FF48071FFF7F3BB00BF0020C4F2C1
:1010C000020000F500604FF40071FFF7E9BB00007B
:1010D000FEE70000FEE70000704700000138C0B2E4
:1010E000032884BF0120704704A131F8101041F299
:1010F0000000C4F20200FFF7CDBB00BF00200010CB
:101100000004000170470000FFF7D6BB70470000E5
:1011100040F28400C2F20000FFF710BFFEE70000BB
:1011200092B0FFF7D7FB06AC201D2C21FFF710F97A
:10113000022006900120099010200A9000252046E8
:101140000C95FFF74DFD28B1EFF3108072B600BF8C
:10115000FEE700BF0F20CDE9010501A80021CDE980
:1011600003550595FFF74EFC20B1EFF3108072B6E2
:10117000FEE700BF002643F630000A960196C4F24F
:101180000200016840F2004841F01001016001686E
:10119000C4F2020801F01001019101990196016861
:1011A00008F5406441F0040101600168002201F08B
:1011B00004010191019901960168052541F00201A0
:1011C0000160016801F00201019101990196016835
:1011D00041F001010160016801F0010101910199F3
:1011E0000196016841F0080101600068052100F0E6
:1011F0000800019001982046FFF752FB08F5806730
:1012000038464FF400710022FFF74AFBA8F5806AC8
:1012100050464FF480710022FFF742FB08F5006949
:101220004846FF210022FFF73BFB404628210022D1
:10123000FFF736FB069506AD4FF0010B2046294619
:10124000CDE907B60996FFF751FA102006A981E803
:10125000410838462946FFF749FA042006A981E8E3
:10126000410840462946FFF741FA4FF4565006A977
:1012700081E8410820462946FFF738FA4FF400700C
:10128000CDE9060B38462946CDE90866FFF72EFA68
:101290004FF48070CDE9060B50462946CDE908662B
:1012A000FFF724FAFF20CDE9060B48462946CDE991
:1012B0000866FFF71BFA2820CDE9060B40462946B1
:1012C000CDE90866FFF712FAFFF7F0FA40F2700175
:1012D00040F2800440F2810540F2820640F283072A
:1012E000C2F20001C2F20004C2F20005C2F200061E
:1012F000C2F20007C88000BF0120FFF7EFFE207098
:101300000220FFF7EBFE28700320FFF7E7FE3070A6
:101310000420FFF7E3FE03462078297832783B70FB
:10132000FFF77AF8E8E70000000000000000010283
:1013300003040607080900005813000800000020F5
:1013400010000000C0010008681300081000002011
:10135000C0060000DC0100080100000010000000D1
:081360000024F400000000006D
:040000050800018569
:00000001FF
