:020000040800F2
:10000000C006002021020008FD0F0008F50F0008BF
:10001000F90F0008190400085D1100080000000035
:1000200000000000000000000000000005100008B3
:100030001D0400080000000001100008091000085D
:100040003B0200083B0200083B0200083B0200089C
:100050003B0200083B0200083B0200083B0200088C
:100060003B0200083B0200083B0200083B0200087C
:100070003B0200083B0200083B0200083B0200086C
:100080003B0200083B0200083B0200083B0200085C
:100090003B0200083B0200083B0200083B0200084C
:1000A0003B0200083B0200083B0200083B0200083C
:1000B0003B0200083B0200083B0200083B0200082C
:1000C0003B0200083B0200083B0200083B0200081C
:1000D0003B0200083B0200083B0200083B0200080C
:1000E0003B0200083B0200083B0200083B020008FC
:1000F0003B0200083B0200083B0200083B020008EC
:100100003B0200083B0200083B0200083B020008DB
:100110003B0200083B0200083B0200083B020008CB
:100120003B0200083B0200083B0200083B020008BB
:100130003B0200083B0200083B0200083B020008AB
:100140003B0200083B0200083B0200083B0200089B
:100150003B0200083B0200083B0200083B0200088B
:100160003B0200083B0200083B0200083B0200087B
:100170003B0200083B0200083B02000800000000B0
:100180003B02000800F002F800F03AF80AA090E8FC
:10019000000C82448344AAF10107DA4501D100F042
:1001A0002FF8AFF2090EBAE80F0013F0010F18BFD5
:1001B000FB1A43F001031847101100003011000032
:1001C000103A24BF78C878C1FAD8520724BF30C883
:1001D00030C144BF04680C60704700000023002455
:1001E00000250026103A28BF78C1FBD8520728BF47
:1001F00030C148BF0B6070471FB51FBD10B510BDA3
:1002000000F0D0F81146FFF7F7FF00F0A9FF00F06B
:10021000EEF803B4FFF7F2FF03BC00F0F5F80000BE
:100220000948804709480047FEE7FEE7FEE7FEE78A
:10023000FEE7FEE7FEE7FEE7FEE7FEE704480549C6
:10024000054A064B704700000D10000885010008A4
:10025000C0000020C0060020C0020020C002002014
:1002600053EA020C00F069802DE9F04B4FF00006D4
:10027000002B1FBFB3FA83F503FA05F424FA05F641
:100280005E4012BF1643B2FA82F502FA05F4C5F1D8
:1002900020051EBF22FA05FC44EA0C04203556EA6C
:1002A000044C4FEA144418BF641C4FF000084FF090
:1002B0000009904271EB030C39D3002919BFB1FA40
:1002C00081F701FA07F6B0FA80F700FA07F6C7F1EE
:1002D00020071EBF20FA07FC46EA0C062037B6FBB3
:1002E000F4FCA7EB0507103F07F01F0BCBF120062E
:1002F0002CFA06F60CFA0BFB44BFB3460026202F5F
:10030000A4BF5E464FF0000B5BEA060C08BF4FF03F
:10031000010B19EB0B0948EB0608ABFB027C06FB53
:1003200002CC0BFB03CCC01B71EB0C01C1E70B46ED
:10033000024641464846BDE8F08B13B5084318BF56
:100340004FF0FF300146AFF30080BDE81C4070471E
:100350004FF0000200B5134694469646203922BF5E
:10036000A0E80C50A0E80C50B1F12001BFF4F7AFA9
:10037000090728BFA0E80C5048BF0CC05DF804EB8B
:10038000890028BF40F8042B08BF704748BF20F8F9
:10039000022B11F0804F18BF00F8012B70477047F7
:1003A00070477047754600F02BF8AE460500694669
:1003B000534620F00700854618B020B5FFF73EFFF2
:1003C000BDE820404FF000064FF000074FF0000856
:1003D0004FF0000BAC46ACE8C009ACE8C009ACE893
:1003E000C009ACE8C00921F007018D46704710B57F
:1003F0000446AFF300802046BDE81040FFF709BF78
:10040000004870471000002001491820ABBEFEE7ED
:100410002600020070470000FEE700007047000061
:100420002DE9F04F82B00C68002C00F0C98000F17B
:100430003E4742F2000507F1FF77C4F202050922A8
:1004400043F6004E4FEAB726A84208BF0822C4F27E
:10045000010E082E38BF4FEAB722002600274FF0C2
:10046000000800920BE000BF0C6808F1010834FAA4
:1004700008F207F1040706F1020600F0A18001224C
:1004800002FA08FC14EA0C09EED0D1F804B00322F9
:100490000BF00304651EB240012D6FEA020A11D869
:1004A0008268CD6802EA0A02B5402A438260426847
:1004B000CBF3001522EA0C0205FA08F52A43426044
:1004C00004E000BF032C01D103241DE0C2688D6845
:1004D00002EA0A02B5402A43022CC26014D16FF02E
:1004E000030202EA58020244D2F820C007F01C04BA
:1004F0000F230D69A3402CEA0303A5402B4313628D
:10050000D1F804B00BF00304026804FA06F302EA1F
:100510000A021A431BF4403F0260A5D0002243F6B2
:1005200044030192C4F202031A684FF6084C42F4E5
:1005300080421A601A68CFF6FF7C02F48042019272
:10054000019A28F00302724452F80C3007F00C05AF
:100550000F24AC40A343009C04FA05F52B4342F85A
:100560000C30DEF808204B6842EA090543F60C4CD3
:10057000DC0258BF22EA0905CEF80850C4F2010C8B
:10058000DCF800209C0242EA090558BF22EA09056E
:10059000CCF80050DEF804209C0342EA090558BF5D
:1005A00022EA0905CEF80450DEF80020DB0342EA17
:1005B000090558BF22EA0905CEF8005054E700BFEC
:1005C00002B0BDE8F08F0000426902EA01039143E6
:1005D00041EA034181617047002A08BF0904816133
:1005E0007047000040F2B800C2F200000068704797
:1005F00040F2000040F2B801C2F20000C2F2000175
:1006000000780A68104408607047000080B543F61F
:100610000040C4F20200016841F400710160016809
:1006200041F480610160016841F480710160032040
:1006300000F074F80F2000F005F800F027F8002013
:1006400080BD000070B540F20006C2F2000640F224
:1006500008013278C2F200014FF47A730968B3FBE3
:10066000F2F20446B1FBF2F1084600F0E7FA0F2C73
:100670004FF0010508D838B94FF0FF30214600226D
:10068000002500F01FF87460284670BD82B000207D
:1006900043F640010190C4F202014A6842F48042EC
:1006A0004A604A6802F480420192019A0090086808
:1006B00040F080500860086800F08050009000987A
:1006C00002B0704710B54EF60C5CCEF2000CDCF8B0
:1006D0000030C3F3022E8EF00704042C28BF04243C
:1006E000BEF103034FF0FF3E0EFA04F438BF0023BF
:1006F000A14399400EFA03F39A43114300F00F020D
:1007000000F160430901043A03F5644362440028A0
:1007100048BF02F10C03197010BD00004EF60C51D9
:10072000CEF200010A684FF6FF031A4060F30A2276
:1007300042F0806040F0FD70086070472DE9F041A4
:10074000002800F0C78043F60808C4F202080446F7
:10075000D8F8F8030D4600F00F00884208D288F858
:10076000F853D8F8F80300F00F00A84240F0B28028
:100770002068810717D5410705D5D8F8001041F446
:10078000E051C8F80010010705D5D8F8001041F471
:100790006041C8F80010D8F80010A26821F0F001FC
:1007A0001143C8F80010C00720D1D8F8F80300F0B2
:1007B0000F00A84208D988F8F853D8F8F80300F0D9
:1007C0000F00A84240F08680206841071CD4000733
:1007D00024D4D8F8000000F00C0008282DD00428FC
:1007E0004ED147F64000C0F27D104DE0606802280F
:1007F00064D001286AD158F8081C89035CBF012025
:10080000BDE8F0816AE000BFD8F80010E26821F48A
:10081000E0511143C8F800100007DAD5D8F80000FD
:10082000216920F4604040EAC100C8F80000D8F80F
:10083000000000F00C000828D1D158F8040C58F83A
:10084000041C58F8043C490247F64001C0F27D11EF
:1008500000F03F02C3F388105CBF42F20041C0F2D7
:10086000F401A1FB00010023FFF7FAFC58F8041C77
:100870000222C1F3014102EB4101B0FBF1F003E0C0
:1008800042F20040C0F2F400D8F8001041F2B82261
:10089000C1F30311C0F60002515C40F2080220FAD5
:1008A00001F140F20400C2F200000068C2F200024E
:1008B0001160FFF7C7FE0020BDE8F08158F8081C62
:1008C00089015CBF0120BDE8F08107E058F8081CF1
:1008D000890703D40120BDE8F08100BFD8F80010DB
:1008E00021F003010843C8F80000FFF77BFE06462D
:1008F00041F28837D8F80000616800F00C00B0EBD6
:10090000810F3FF452AFFFF76DFE801BB842F1D963
:100910000320BDE8F08100002DE9F04182B00028FD
:1009200000F08E800446007843F60006C007C4F24B
:1009300002062FD0B06800F00C00042806D1306801
:10094000800327D5606828BB7AE000BFB06800F05C
:100950000C00082802D170684002F0D46068B070C2
:100960006568FFF73FFE002D054610D03068800314
:1009700010D4FFF737FE401B6428F7D9F7E000BF1B
:10098000FFF730FE401B64284FF0030054D8306856
:100990008003F5D4207880071AD5B06810F00C0FCA
:1009A00009D0B06800F00C00082840F09180706811
:1009B000400200F18D803068800702D5E068012890
:1009C0003ED13068216920F0F80040EAC100306073
:1009D0002078000738D4207840074DD4A56955B356
:1009E000B06800F00C00082840F0C680012D27D028
:1009F0007068E16900F480028A4221D1216A00F026
:100A00003F028A421CD147F6C071626A0140B1EBD5
:100A1000821F15D1A16A4FF6FF73C903994300F4F1
:100A20004032A1F580318A420AD1E16A00F070605B
:100A3000B0EB016F04D1002002B0BDE8F08100BF2F
:100A4000012002B0BDE8F0816069002840F200009A
:100A5000C4F247207CD00121C0F8801EFFF7C2FD00
:100A6000054600BF706F8007B5D4FFF7BBFD401B84
:100A70000228F7D97BE000BF306C10F080580AD113
:100A800000200190306C40F080503064306C00F0F9
:100A900080500190019847F20007C4F200073868BF
:100AA00040F4807038603868C00527D4386840F456
:100AB00080703860FFF796FD054600BF3868C005B6
:100AC0001CD4FFF78FFD401B0228F7D94FE000BF71
:100AD000E068002872D00020C4F2472001210160A4
:100AE000FFF780FD054600BF306880073FF569AF1E
:100AF000FFF778FD401B0228F6D938E0A06886F899
:100B00007000A568FFF76EFD002D054641F288379D
:100B100012D000BF306F800711D4FFF763FD401B78
:100B2000B842F7D923E000BFFFF75CFD401BB84295
:100B30004FF003003FF680AF306F8007F4D4B8F178
:100B4000000F7FF44BAF306C20F08050306445E7ED
:100B50000021C0F8801EFFF745FD0546706F800735
:100B60007FF539AFFFF73EFD401B0228F6D9032081
:100B700002B0BDE8F08100BF0027C4F24727002083
:100B80003866FFF72FFD022D05460BD13068800136
:100B900028D5FFF727FD401B64284FF00300F5D947
:100BA0004AE700BF306880017FF545AFFFF71AFDC7
:100BB000401B64284FF00300F4D93DE70020C4F245
:100BC000472000210160FFF70DFD054630688007D2
:100BD0007FF5FEAEFFF706FD401B02284FF0030035
:100BE000F4D929E7706848F20001CFF2BC0104F1A2
:100BF0001C0500EA010C2ECDE46A41EA0C01ED036C
:100C00004FF6FF70114325EA000041EA8311A0F579
:100C1000803041EA04610843706001203866FFF7C4
:100C2000E1FC0446306880013FF505AFFFF7DAFCD0
:100C3000001B64284FF00300F4D9FDE6411E00209C
:100C4000B0EB116F1CBF012070474EF21002CEF2C4
:100C5000000251604EF62351CEF20001F0230B70DA
:100C6000072190601160704710B590F83C20012A70
:100C70004FF0020251D080F83D200268D2F804E023
:100C8000D2F808C00C682EF07003234341F2FF74C1
:100C9000C4F20004A24253600EDC40F2FF73C4F2BF
:100CA00000039A4216DCB2F1804F2BD040F2004391
:100CB000C4F2000324E000BF40F2FF33C4F201039A
:100CC0009A4213DC41F60003C4F200039A4219D0A1
:100CD000002313E040F60003C4F200039A4211D04F
:100CE00040F60043C4F200030AE000BF44F20003F0
:100CF000C4F201039A4205D040F20043C4F201035A
:100D00009A4204D149682CF0800319439160012173
:100D1000002280F83D1080F83C20104610BD0000F5
:100D2000002804BF0120704710B5044690F83D002C
:100D300028B9002084F83C00204600F01FF802206B
:100D400084F83D002068211D00F062F9012084F83C
:100D5000460084F83E0084F83F0084F8400084F8A0
:100D6000410084F8420084F8430084F8440084F889
:100D7000450084F83D00002010BD000081B00068EF
:100D80000021C4F20101884202D001B0704700BFC7
:100D90000020009043F64400C4F20200016841F0D4
:100DA00001010160006800F001000090009801B0AE
:100DB0007047000090F83D1001291CBF01207047CA
:100DC000022180F83D10006841F2FF71C4F2000179
:100DD00088420DDC40F2FF71C4F20001884215DC4C
:100DE000B0F1804F2AD040F20041C4F2000123E06C
:100DF00040F2FF31C4F20101884213DC41F60001E8
:100E0000C4F20001884219D0002113E040F600012D
:100E1000C4F20001884211D040F60041C4F2000142
:100E20000AE000BF44F20001C4F20101884205D08B
:100E300040F20041C4F20101884206D1816801F00C
:100E40000701062904BF00207047016841F0010135
:100E5000016000207047000080B590F83C20012A16
:100E60004FF0020200F0C28080F83D20D0F800C0B0
:100E70004FF67772DCF8083023EA0202CCF808203B
:100E80000B684F2B28DC1F2B44DD202B45D0302B4B
:100E900043D0402B40F0AC80D1F804E0C968DCF8C6
:100EA0002030DCF8202022F00102CCF82020DCF8F1
:100EB000182022F0F00242EA011123F00A0242EA6D
:100EC0000E02CCF81810CCF82020DCF8081041F005
:100ED000470121F0300180E06F2B27DDB3F5005F83
:100EE00048D0B3F5805F7AD0702B40F08180D1E993
:100EF00001E3C968DCF8082043EA0E0322F47F42CC
:100F000043EA01211143CCF80810DCF8081041F045
:100F1000770162E00BB1102B6AD1DCF8081021F0E8
:100F20007001194341F0070157E000BF502B35D045
:100F3000602B5DD1D1F804E0C968DCF82030DCF822
:100F4000202022F01002CCF82020DCF8182022F417
:100F5000704242EA013123F0A00242EA0E12CCF8BC
:100F60001810CCF82020DCF8081041F0670121F0BF
:100F7000100132E0D1E901E3C968DCF8082043EA56
:100F80000E0322F47F4243EA01211143CCF80810FA
:100F9000DCF8081041F480411FE000BFD1F804E004
:100FA000C968DCF82030DCF8202022F00102CCF8FF
:100FB0002020DCF8182022F0F00242EA011123F090
:100FC0000A0242EA0E02CCF81810CCF82020DCF815
:100FD000081041F0570121F02001CCF80810002240
:100FE000012180F83D10002180F83C10104680BDA2
:100FF0000122F5E7FEE70000FEE70000FEE7000043
:101000007047000070470000FFF7F2BA7047000019
:1010100010B540F6FF3E0368C4F2000E40F2004CEB
:101020007045C4F2010C27DCB0F1804F31D040F2A2
:101030000042C4F2000290422BD040F60002C4F2FB
:101040000002904225D041F6FF72C4F200029042A5
:1010500029DC70453CDCB0F1804F5FD040F20042AB
:10106000C4F20002904259D040F60002C4F20002DD
:10107000904253D056E000BF40F60042C4F2000256
:10108000904206D0604504D00022C4F20102904292
:10109000D9D14A6823F07003134341F6FF72C4F2BA
:1010A00000029042D5DD43F6FF72C4F20102904285
:1010B00022DC42F20002C4F2000290422ED0002252
:1010C000C4F20102904229D0604527D02AE000BF37
:1010D00040F60042C4F2000290421FD041F60002E6
:1010E000C4F20002904219D041F60042C4F200025C
:1010F000904213D016E000BF44F20002C4F2010295
:1011000090420BD044F60002C4F20102904205D096
:1011100044F20042C4F20102904203D1CA6823F4AF
:101120004073134323F080024B69D1F800E08C68D0
:101130001A430260C46240F48062C0F828E062454D
:1011400004BF09690163012141610169C90708BF41
:1011500010BD016921F00101016110BDFEE7000031
:1011600092B0FFF753FA06AC201D2C21FFF7F0F8E0
:10117000022006900120099010200A9000252046A8
:101180000C95FFF7C9FB28B1EFF3108072B600BFD2
:10119000FEE700BF0F20CDE9000568460021CDE93C
:1011A00002550495FFF7CAFA20B1EFF3108072B62A
:1011B000FEE700BF002543F630000A950095C4F213
:1011C00002000168002441F0010101600068C4F2DE
:1011D000020400F001000090009820464FF4807156
:1011E00000224FF48076FFF7F7F90120CDE90705DB
:1011F00006A9204606960995FFF712F940F27000FD
:10120000A4F58031C2F20000C7230995CDE9075546
:10121000CDE9005543F67F6280E82600C0E903353A
:10122000C0E90555FFF77CFD20B1EFF3108072B6E1
:10123000FEE700BF4FF48050069040F27000C2F20B
:10124000000006A9FFF708FE20B1EFF3108072B688
:10125000FEE700BF40F27005C2F20005694628466D
:10126000FFF702FD20B1EFF3108072B6FEE700BF7A
:1012700020464FF4807100220026FFF7ADF9284682
:10128000FFF798FD6FF0010705E000BF20464FF41F
:101290008071FFF799F92868076146620169C907FB
:1012A000F4D10169C90704BF01695FEAC171EDD1D9
:1012B0000169C907F2D0E9E7000000000000000062
:1012C0000102030406070809E812000800000020D4
:1012D00010000000C0010008F812000810000020F3
:1012E000B0060000DC010008010000001000000052
:0812F0000024F40000000000DE
:040000050800018569
:00000001FF
