:020000040800F2
:100000007806002021020008BD0D0008B50D00088B
:10001000B90D000841050008D10D000800000000DE
:10002000000000000000000000000000C50D0008F6
:100030004505000800000000C10D0008C90D0008BA
:100040003B0200083B0200083B0200083B0200089C
:100050003B0200083B0200083B0200083B0200088C
:100060003B0200083B0200083B0200083B0200087C
:100070003B0200083B0200083B0200083B0200086C
:100080003B0200083B0200083B0200083B0200085C
:100090003B0200083B0200083B0200083B0200084C
:1000A0003B0200083B0200083B0200083B0200083C
:1000B0003B0200083B0200083B0200083B0200082C
:1000C0003B0200083B0200083B0200083B0200081C
:1000D0003B0200083B0200083B0200083B0200080C
:1000E0003B0200083B0200083B0200083B020008FC
:1000F0003B0200083B0200083B0200083B020008EC
:100100003B0200083B0200083B0200083B020008DB
:100110003B0200083B0200083B0200083B020008CB
:100120003B0200083B0200083B0200083B020008BB
:100130003B0200083B0200083B0200083B020008AB
:100140003B0200083B0200083B0200083B0200089B
:100150003B0200083B0200083B0200083B0200088B
:100160003B0200083B0200083B0200083B0200087B
:100170003B0200083B0200083B02000800000000B0
:100180003B02000800F002F800F03AF80AA090E8FC
:10019000000C82448344AAF10107DA4501D100F042
:1001A0002FF8AFF2090EBAE80F0013F0010F18BFD5
:1001B000FB1A43F001031847640D0000840D000092
:1001C000103A24BF78C878C1FAD8520724BF30C883
:1001D00030C144BF04680C60704700000023002455
:1001E00000250026103A28BF78C1FBD8520728BF47
:1001F00030C148BF0B6070471FB51FBD10B510BDA3
:1002000000F0D0F81146FFF7F7FF00F0E3FD00F033
:10021000EEF803B4FFF7F2FF03BC00F0F5F80000BE
:100220000948804709480047FEE7FEE7FEE7FEE78A
:10023000FEE7FEE7FEE7FEE7FEE7FEE704480549C6
:10024000054A064B70470000CD0D000885010008E7
:100250007800002078060020780200207802002034
:1002600053EA020C00F069802DE9F04B4FF00006D4
:10027000002B1FBFB3FA83F503FA05F424FA05F641
:100280005E4012BF1643B2FA82F502FA05F4C5F1D8
:1002900020051EBF22FA05FC44EA0C04203556EA6C
:1002A000044C4FEA144418BF641C4FF000084FF090
:1002B0000009904271EB030C39D3002919BFB1FA40
:1002C00081F701FA07F6B0FA80F700FA07F6C7F1EE
:1002D00020071EBF20FA07FC46EA0C062037B6FBB3
:1002E000F4FCA7EB0507103F07F01F0BCBF120062E
:1002F0002CFA06F60CFA0BFB44BFB3460026202F5F
:10030000A4BF5E464FF0000B5BEA060C08BF4FF03F
:10031000010B19EB0B0948EB0608ABFB027C06FB53
:1003200002CC0BFB03CCC01B71EB0C01C1E70B46ED
:10033000024641464846BDE8F08B13B5084318BF56
:100340004FF0FF300146AFF30080BDE81C4070471E
:100350004FF0000200B5134694469646203922BF5E
:10036000A0E80C50A0E80C50B1F12001BFF4F7AFA9
:10037000090728BFA0E80C5048BF0CC05DF804EB8B
:10038000890028BF40F8042B08BF704748BF20F8F9
:10039000022B11F0804F18BF00F8012B70477047F7
:1003A00070477047754600F02BF8AE460500694669
:1003B000534620F00700854618B020B5FFF73EFFF2
:1003C000BDE820404FF000064FF000074FF0000856
:1003D0004FF0000BAC46ACE8C009ACE8C009ACE893
:1003E000C009ACE8C00921F007018D46704710B57F
:1003F0000446AFF300802046BDE81040FFF709BF78
:10040000004870471000002001491820ABBEFEE7ED
:1004100026000200704700002DE9F04140F270080C
:10042000C2F200080C4698F8001040F600050329B7
:10043000C4F2020534D80646DFE801F002101C269B
:10044000A5F500604FF480710122012700F06AF9E0
:10045000002E08BF88F8007022E000BFA5F50060FC
:100460004FF48071002200F05DF9012E18D10227AF
:1004700014E000BFA5F500604FF48071002200F089
:1004800051F96EB9032709E0A5F500604FF48071BA
:10049000012200F047F9012E02D1002788F80070F0
:1004A00098F80100042810D8DFE800F00412203A80
:1004B000040000BF28464FF400710122012500F01E
:1004C00031F9002C08BF88F80150BDE8F08100BF69
:1004D00028464FF40071012200F024F9012CF4D1D8
:1004E000022588F80150BDE8F08100BF4FF4FA669C
:1004F00028464FF40071002200F014F9012000F0AA
:1005000023F828464FF40071012200F00BF9013E58
:10051000EED1002CD9D1032588F80150BDE8F08137
:1005200028464FF40071002200F0FCF8012C18BF9F
:10053000BDE8F081042588F80150BDE8F081000095
:10054000FEE7000070470000B0B5044600F0F0F888
:10055000054640F20000C2F200000078611C18BF9E
:10056000044400BF00F0E4F8401BA042FAD3B0BD41
:100570002DE9F04F82B00C68002C00F0C98000F12A
:100580003E4742F2000507F1FF77C4F20205092257
:1005900043F6004E4FEAB726A84208BF0822C4F22D
:1005A000010E082E38BF4FEAB722002600274FF071
:1005B000000800920BE000BF0C6808F1010834FA53
:1005C00008F207F1040706F1020600F0A1800122FB
:1005D00002FA08FC14EA0C09EED0D1F804B00322A8
:1005E0000BF00304651EB240012D6FEA020A11D818
:1005F0008268CD6802EA0A02B5402A4382604268F6
:10060000CBF3001522EA0C0205FA08F52A434260F2
:1006100004E000BF032C01D103241DE0C2688D68F3
:1006200002EA0A02B5402A43022CC26014D16FF0DC
:10063000030202EA58020244D2F820C007F01C0468
:100640000F230D69A3402CEA0303A5402B4313623B
:10065000D1F804B00BF00304026804FA06F302EACE
:100660000A021A431BF4403F0260A5D0002243F661
:1006700044030192C4F202031A684FF6084C42F494
:1006800080421A601A68CFF6FF7C02F48042019221
:10069000019A28F00302724452F80C3007F00C055E
:1006A0000F24AC40A343009C04FA05F52B4342F809
:1006B0000C30DEF808204B6842EA090543F60C4C82
:1006C000DC0258BF22EA0905CEF80850C4F2010C3A
:1006D000DCF800209C0242EA090558BF22EA09051D
:1006E000CCF80050DEF804209C0342EA090558BF0C
:1006F00022EA0905CEF80450DEF80020DB0342EAC6
:10070000090558BF22EA0905CEF8005054E700BF9A
:1007100002B0BDE8F08F00000069084018BF01205A
:1007200070470000002A08BF09048161704700007B
:1007300040F27400C2F200000068704740F200000E
:1007400040F27401C2F20000C2F2000100780A68AF
:10075000104408607047000080B543F60040C4F2C2
:100760000200016841F400710160016841F4806198
:100770000160016841F480710160032000F074F8A9
:100780000F2000F005F800F027F8002080BD0000E1
:1007900070B540F20006C2F2000640F2080132785D
:1007A000C2F200014FF47A730968B3FBF2F2044617
:1007B000B1FBF2F1084600F0E7FA0F2C4FF001050B
:1007C00008D838B94FF0FF3021460022002500F04C
:1007D0001FF87460284670BD82B0002043F64001C7
:1007E0000190C4F202014A6842F480424A604A68B9
:1007F00002F480420192019A0090086840F0805013
:100800000860086800F080500090009802B07047BF
:1008100010B54EF60C5CCEF2000CDCF80030C3F3E1
:10082000022E8EF00704042C28BF0424BEF103031B
:100830004FF0FF3E0EFA04F438BF0023A143994065
:100840000EFA03F39A43114300F00F0200F16043E4
:100850000901043A03F564436244002848BF02F1E9
:100860000C03197010BD00004EF60C51CEF20001C1
:100870000A684FF6FF031A4060F30A2242F08060D4
:1008800040F0FD70086070472DE9F041002800F04D
:10089000C78043F60808C4F202080446D8F8F803F3
:1008A0000D4600F00F00884208D288F8F853D8F8B7
:1008B000F80300F00F00A84240F0B28020688107E2
:1008C00017D5410705D5D8F8001041F4E051C8F814
:1008D0000010010705D5D8F8001041F46041C8F8B0
:1008E0000010D8F80010A26821F0F0011143C8F8F8
:1008F0000010C00720D1D8F8F80300F00F00A8427C
:1009000008D988F8F853D8F8F80300F00F00A84287
:1009100040F08680206841071CD4000724D4D8F812
:10092000000000F00C0008282DD004284ED147F616
:100930004000C0F27D104DE06068022864D00128BC
:100940006AD158F8081C89035CBF0120BDE8F0811A
:100950006AE000BFD8F80010E26821F4E0511143CA
:10096000C8F800100007DAD5D8F80000216920F493
:10097000604040EAC100C8F80000D8F8000000F06C
:100980000C000828D1D158F8040C58F8041C58F869
:10099000043C490247F64001C0F27D1100F03F02DD
:1009A000C3F388105CBF42F20041C0F2F401A1FB26
:1009B00000010023FFF754FC58F8041C0222C1F385
:1009C000014102EB4101B0FBF1F003E042F20040D3
:1009D000C0F2F400D8F8001040F60A72C1F3031117
:1009E000C0F60002515C40F2080220FA01F140F228
:1009F0000400C2F200000068C2F200021160FFF7BA
:100A0000C7FE0020BDE8F08158F8081C89015CBFD2
:100A10000120BDE8F08107E058F8081C890703D4DD
:100A20000120BDE8F08100BFD8F8001021F00301DB
:100A30000843C8F80000FFF77BFE064641F28837FE
:100A4000D8F80000616800F00C00B0EB810F3FF4B3
:100A500052AFFFF76DFE801BB842F1D90320BDE80D
:100A6000F08100002DE9F04182B0002800F08E8076
:100A70000446007843F60006C007C4F202062FD0F1
:100A8000B06800F00C00042806D13068800327D538
:100A9000606828BB7AE000BFB06800F00C0008284E
:100AA00002D170684002F0D46068B0706568FFF7EA
:100AB0003FFE002D054610D03068800310D4FFF7AC
:100AC00037FE401B6428F7D9F7E000BFFFF730FE80
:100AD000401B64284FF0030054D830688003F5D4DD
:100AE000207880071AD5B06810F00C0F09D0B068D4
:100AF00000F00C00082840F091807068400200F17E
:100B00008D803068800702D5E06801283ED13068CA
:100B1000216920F0F80040EAC10030602078000729
:100B200038D4207840074DD4A56955B3B06800F09B
:100B30000C00082840F0C680012D27D07068E169BC
:100B400000F480028A4221D1216A00F03F028A42E9
:100B50001CD147F6C071626A0140B1EB821F15D10A
:100B6000A16A4FF6FF73C903994300F44032A1F51F
:100B700080318A420AD1E16A00F07060B0EB016F07
:100B800004D1002002B0BDE8F08100BF012002B016
:100B9000BDE8F0816069002840F20000C4F24720FF
:100BA0007CD00121C0F8801EFFF7C2FD054600BFC2
:100BB000706F8007B5D4FFF7BBFD401B0228F7D943
:100BC0007BE000BF306C10F080580AD1002001900B
:100BD000306C40F080503064306C00F080500190F8
:100BE000019847F20007C4F20007386840F48070AB
:100BF00038603868C00527D4386840F480703860A1
:100C0000FFF796FD054600BF3868C0051CD4FFF706
:100C10008FFD401B0228F7D94FE000BFE068002895
:100C200072D00020C4F2472001210160FFF780FD4F
:100C3000054600BF306880073FF569AFFFF778FDD4
:100C4000401B0228F6D938E0A06886F87000A56835
:100C5000FFF76EFD002D054641F2883712D000BF28
:100C6000306F800711D4FFF763FD401BB842F7D9FE
:100C700023E000BFFFF75CFD401BB8424FF00300CC
:100C80003FF680AF306F8007F4D4B8F1000F7FF4E7
:100C90004BAF306C20F08050306445E70021C0F845
:100CA000801EFFF745FD0546706F80077FF539AF61
:100CB000FFF73EFD401B0228F6D9032002B0BDE835
:100CC000F08100BF0027C4F2472700203866FFF7F5
:100CD0002FFD022D05460BD13068800128D5FFF786
:100CE00027FD401B64284FF00300F5D94AE700BFF9
:100CF000306880017FF545AFFFF71AFD401B64287F
:100D00004FF00300F4D93DE70020C4F24720002152
:100D10000160FFF70DFD0546306880077FF5FEAEE8
:100D2000FFF706FD401B02284FF00300F4D929E726
:100D3000706848F20001CFF2BC0104F11C0500EA22
:100D4000010C2ECDE46A41EA0C01ED034FF6FF7071
:100D5000114325EA000041EA8311A0F5803041EA01
:100D600004610843706001203866FFF7E1FC044627
:100D7000306880013FF505AFFFF7DAFC001B6428FF
:100D80004FF00300F4D9FDE6411E0020B0EB116FD7
:100D90001CBF012070474EF21002CEF200025160DB
:100DA0004EF62351CEF20001F0230B700721906024
:100DB00011607047FEE70000FEE70000FEE700005C
:100DC0007047000070470000FFF7B8BC7047000094
:100DD000FEE7000092B0FFF7BFFC06AC201D2C21FF
:100DE000FFF7B6FA022006900120099010200A9021
:100DF000002520460C95FFF735FE28B1EFF3108053
:100E000072B600BFFEE700BF0F20CDE9010501A8C3
:100E10000021CDE903550595FFF736FD20B1EFF32D
:100E2000108072B6FEE700BF002743F63000CDE920
:100E300009770197C4F20200016841F2000441F011
:100E4000100101600168C4F2020401F01001019177
:100E5000019901970168A4F5006641F00401016061
:100E60000168002201F004010191019901970168D4
:100E70004FF4007941F00101016000684FF4007106
:100E800000F00100019001983046FFF74BFCA4F5FB
:100E9000805528464FF4807100224FF4807AFFF786
:100EA00041FC4FF454500DF11808CDE906072046D7
:100EB00041460897FFF75CFBCDF818904FF0010909
:100EC00030464146CDE907970997FFF751FB284681
:100ED0004146CDE906A9CDE90877FFF749FB40F285
:100EE0007005C2F2000500BF20464FF40051FFF725
:100EF00013FCA87020464FF48051FFF70DFC01460B
:100F0000A878E970FFF788FAEEE70000000000001B
:100F1000000001020304060708090000400F000852
:100F20000000002010000000C0010008500F000861
:100F30001000002068060000DC010008000000002E
:100F400001000000100000000024F4000000000078
:040000050800018569
:00000001FF
