:020000040800F2
:100000008006002029020008C1120008AD0F000878
:10001000BD12000839070008D512000800000000D2
:10002000000000000000000000000000C9120008ED
:100030003D07000800000000C5120008CD120008AE
:10004000430200084302000843020008430200087C
:10005000430200084302000843020008430200086C
:10006000430200084302000843020008430200085C
:10007000430200084302000843020008430200084C
:10008000430200084302000843020008430200083C
:10009000430200084302000843020008430200082C
:1000A000430200084302000843020008430200081C
:1000B000430200084302000843020008430200080C
:1000C00043020008430200084302000843020008FC
:1000D00043020008430200084302000843020008EC
:1000E00043020008430200084302000843020008DC
:1000F00043020008430200084302000843020008CC
:1001000043020008430200084302000843020008BB
:1001100043020008430200084302000843020008AB
:10012000430200084302000843020008430200089B
:10013000430200084302000843020008430200088B
:10014000430200084302000843020008430200087B
:10015000430200084302000843020008430200086B
:10016000430200084302000843020008430200085B
:100170004302000843020008430200080000000098
:100180004302000800F002F800F03FF80AA090E8EF
:10019000000C82448344AAF10107DA4501D100F042
:1001A00034F8AFF2090EBAE80F0013F0010F18BFD0
:1001B000FB1A43F0010318476C1400008C14000074
:1001C000103A24BF78C878C1FAD8520724BF30C883
:1001D00030C144BF04680C60704700000023002455
:1001E00000250026103A28BF78C1FBD8520728BF47
:1001F00030C148BF0B607047642900F0E9800020DF
:1002000070471FB51FBD10B510BD00F05AFA11465A
:10021000FFF7F7FF01F060F800F078FA03B4FFF79A
:10022000F2FF03BC00F080FA094880470948004704
:10023000FEE7FEE7FEE7FEE7FEE7FEE7FEE7FEE796
:10024000FEE7FEE704480549054A064B70470000F3
:10025000D1120008850100088000002080060020DF
:10026000800200208002002053EA020C00F0698026
:100270002DE9F04B4FF00006002B1FBFB3FA83F5BA
:1002800003FA05F424FA05F65E4012BF1643B2FAEB
:1002900082F502FA05F4C5F120051EBF22FA05FC1D
:1002A00044EA0C04203556EA044C4FEA144418BFC3
:1002B000641C4FF000084FF00009904271EB030CF2
:1002C00039D3002919BFB1FA81F701FA07F6B0FA5C
:1002D00080F700FA07F6C7F120071EBF20FA07FCD7
:1002E00046EA0C062037B6FBF4FCA7EB0507103FE7
:1002F00007F01F0BCBF120062CFA06F60CFA0BFBCD
:1003000044BFB3460026202FA4BF5E464FF0000B2B
:100310005BEA060C08BF4FF0010B19EB0B0948EB29
:100320000608ABFB027C06FB02CC0BFB03CCC01B1C
:1003300071EB0C01C1E70B46024641464846BDE859
:10034000F08B13B5084318BF4FF0FF300146AFF3F1
:100350000080BDE81C4070470FB41CB5074B06AACF
:100360007B4469460090059800F093F900206946A7
:1003700000F0A2F91CBC5DF814FB0000550300005E
:1003800070B5044685690068C10601D5302600E0D5
:100390002026C00707D070BDD4E901213046904720
:1003A000206A401C20626D1EF6D570BD70B50446F3
:1003B00085690078C00707D170BDD4E901212020EC
:1003C0009047206A401C20626D1EF6D570BD00006B
:1003D0002DE9F0410646002410687529314616A51E
:1003E00010D0AFF30080002802DA404213A507E0E6
:1003F00031688A0701D512A502E0490704D511A585
:10040000012401E0AFF3008000210A2206F1240755
:1004100009E0B0FBF2FCB0FBF2F302FB1C00303051
:1004200078541846491C0028F3D123462A46304602
:10043000BDE8F04100F0CEB8000000002D00000043
:100440002B000000200000002DE9F05F89460446E3
:100450004FF0000ADFF824B1FB44C0F820A020468A
:10046000E168884700287DD0252806D0D4E90121FD
:100470009047206A401C2062F1E700255F46204635
:10048000E16888472028064607DB312E05D2B819D7
:1004900010F8200C08B10543F1E7A80701D525F0B5
:1004A0000405C4F81CA00027C4F818A02A2E09D0FF
:1004B000304601F094F838B304EB8708303EC8F8B2
:1004C000186019E059F8041B204604EB870291617B
:1004D000E1688847012F064618D1E069002820DA34
:1004E00025F020051DE0D8F8180000EB800006EB91
:1004F00040003038C8F818002046E16888470646B2
:1005000001F06DF80028EED1012F0AD02E2E08D16F
:100510002046E16888477F1C0646022F45F02005EB
:10052000C4DBA069002803DA404245F00105A06160
:10053000E80701D025F01005A6B1A6F14100192861
:1005400002D8203645F400654A46314620462560EB
:100550004D46FFF751FE60B1012807D0ED1D25F093
:10056000070000E007E000F1080978E705F1040959
:1005700075E730467AE7206ABDE8F09F90110000E9
:100580004FF0000200B5134694469646203922BF2C
:10059000A0E80C50A0E80C50B1F12001BFF4F7AF77
:1005A000090728BFA0E80C5048BF0CC05DF804EB59
:1005B000890028BF40F8042B08BF704748BF20F8C7
:1005C000022B11F0804F18BF00F8012B70477047C5
:1005D000704770472DE9F0470D469946924604460C
:1005E00000F124080168880604D5E06921F01001B3
:1005F000216000E00120A84201DD471B00E0002748
:10060000A1697A1902EB0900081AA0612078C006D6
:1006100002D42046FFF7B4FE002608E0D4E9012109
:100620001AF806009047206A401C761C20624E454E
:10063000F4DB2078C0060AD52046FFF7A1FE06E0CD
:10064000D4E9012130209047206A401C2062381EE6
:10065000A7F10107F4DC07E0D4E9012118F805004F
:100660009047206A401C2062281EA5F10105F3DC9A
:100670002046FFF79BFE2078000602D50220BDE849
:10068000F0870120FBE7000001694A1C026108783D
:10069000704700B58FB0CDE90131002105910549C2
:1006A0007944CDE9031011466846FFF7CDFE0FB03F
:1006B00000BD0000E5FFFFFF0A6802F8010B0A60B9
:1006C0007047754600F02CF8AE4605006946534663
:1006D00020F00700854618B020B5FFF7B3FDBDE850
:1006E00020404FF000064FF000074FF000084FF099
:1006F000000BAC46ACE8C009ACE8C009ACE8C009E6
:10070000ACE8C00921F007018D46704710B50446DA
:10071000AFF300802046BDE81040FFF77FBD00002A
:10072000004870471000002001491820ABBEFEE7CA
:100730002600020070470000FEE70000704700003E
:10074000B0B5044600F0F0F8054640F20400C2F2ED
:1007500000000078611C18BF044400BF00F0E4F8FA
:10076000401BA042FAD3B0BD2DE9F04F82B00C6817
:10077000002C00F0C98000F13E4742F2000507F16D
:10078000FF77C4F20205092243F6004E4FEAB7266E
:10079000A84208BF0822C4F2010E082E38BF4FEA53
:1007A000B722002600274FF0000800920BE000BFA0
:1007B0000C6808F1010834FA08F207F1040706F1A1
:1007C000020600F0A180012202FA08FC14EA0C09DA
:1007D000EED0D1F804B003220BF00304651EB24042
:1007E000012D6FEA020A11D88268CD6802EA0A0276
:1007F000B5402A4382604268CBF3001522EA0C021E
:1008000005FA08F52A43426004E000BF032C01D139
:1008100003241DE0C2688D6802EA0A02B5402A433B
:10082000022CC26014D16FF0030202EA58020244A3
:10083000D2F820C007F01C040F230D69A3402CEA56
:100840000303A5402B431362D1F804B00BF003045B
:10085000026804FA06F302EA0A021A431BF4403F54
:100860000260A5D0002243F644030192C4F20203C1
:100870001A684FF6084C42F480421A601A68CFF6A4
:10088000FF7C02F480420192019A28F00302724434
:1008900052F80C3007F00C050F24AC40A343009C29
:1008A00004FA05F52B4342F80C30DEF808204B68BB
:1008B00042EA090543F60C4CDC0258BF22EA09055E
:1008C000CEF80850C4F2010CDCF800209C0242EA89
:1008D000090558BF22EA0905CCF80050DEF80420CB
:1008E0009C0342EA090558BF22EA0905CEF80450E4
:1008F000DEF80020DB0342EA090558BF22EA0905B9
:10090000CEF8005054E700BF02B0BDE8F08F000001
:100910000069084018BF012070470000002A08BF86
:10092000090481617047000040F27800C2F20000C3
:100930000068704740F2040040F27801C2F2000003
:10094000C2F2000100780A68104408607047000095
:1009500080B543F60040C4F20200016841F4007122
:100960000160016841F480610160016841F48071B7
:100970000160032000F074F80F2000F005F800F08B
:1009800027F8002080BD000070B540F20406C2F2D6
:10099000000640F20C013278C2F200014FF47A7383
:1009A0000968B3FBF2F20446B1FBF2F1084600F02D
:1009B000E7FA0F2C4FF0010508D838B94FF0FF3097
:1009C00021460022002500F01FF87460284670BD03
:1009D00082B0002043F640010190C4F202014A684F
:1009E00042F480424A604A6802F480420192019ACD
:1009F0000090086840F080500860086800F080505F
:100A00000090009802B0704710B54EF60C5CCEF224
:100A1000000CDCF80030C3F3022E8EF00704042C27
:100A200028BF0424BEF103034FF0FF3E0EFA04F486
:100A300038BF0023A14399400EFA03F39A431143B0
:100A400000F00F0200F160430901043A03F564432A
:100A50006244002848BF02F10C03197010BD000069
:100A60004EF60C51CEF200010A684FF6FF031A4011
:100A700060F30A2242F0806040F0FD700860704729
:100A80002DE9F041002800F0C78043F60808C4F2C1
:100A900002080446D8F8F8030D4600F00F0088421B
:100AA00008D288F8F853D8F8F80300F00F00A842ED
:100AB00040F0B2802068810717D5410705D5D8F8E6
:100AC000001041F4E051C8F80010010705D5D8F82E
:100AD000001041F46041C8F80010D8F80010A26876
:100AE00021F0F0011143C8F80010C00720D1D8F858
:100AF000F80300F00F00A84208D988F8F853D8F896
:100B0000F80300F00F00A84240F0868020684107FB
:100B10001CD4000724D4D8F8000000F00C000828EA
:100B20002DD004284ED147F64000C0F27D104DE094
:100B30006068022864D001286AD158F8081C89032B
:100B40005CBF0120BDE8F0816AE000BFD8F800106A
:100B5000E26821F4E0511143C8F800100007DAD52B
:100B6000D8F80000216920F4604040EAC100C8F8CC
:100B70000000D8F8000000F00C000828D1D158F887
:100B8000040C58F8041C58F8043C490247F640018C
:100B9000C0F27D1100F03F02C3F388105CBF42F247
:100BA0000041C0F2F401A1FB00010023FFF75CFB50
:100BB00058F8041C0222C1F3014102EB4101B0FBD1
:100BC000F1F003E042F20040C0F2F400D8F8001067
:100BD00041F2FD52C1F30311C0F60002515C40F234
:100BE0000C0220FA01F140F20800C2F20000006895
:100BF000C2F200021160FFF7C7FE0020BDE8F081DD
:100C000058F8081C89015CBF0120BDE8F08107E0AD
:100C100058F8081C890703D40120BDE8F08100BF03
:100C2000D8F8001021F003010843C8F80000FFF7CE
:100C30007BFE064641F28837D8F80000616800F074
:100C40000C00B0EB810F3FF452AFFFF76DFE801B3D
:100C5000B842F1D90320BDE8F08100002DE9F04150
:100C600082B0002800F08E800446007843F600062B
:100C7000C007C4F202062FD0B06800F00C000428B0
:100C800006D13068800327D5606828BB7AE000BFB2
:100C9000B06800F00C00082802D170684002F0D45F
:100CA0006068B0706568FFF73FFE002D054610D004
:100CB0003068800310D4FFF737FE401B6428F7D953
:100CC000F7E000BFFFF730FE401B64284FF0030041
:100CD00054D830688003F5D4207880071AD5B068DE
:100CE00010F00C0F09D0B06800F00C00082840F09C
:100CF00091807068400200F18D803068800702D5D5
:100D0000E06801283ED13068216920F0F80040EA0F
:100D1000C10030602078000738D4207840074DD4D7
:100D2000A56955B3B06800F00C00082840F0C680F3
:100D3000012D27D07068E16900F480028A4221D138
:100D4000216A00F03F028A421CD147F6C071626AF4
:100D50000140B1EB821F15D1A16A4FF6FF73C903A1
:100D6000994300F44032A1F580318A420AD1E16A08
:100D700000F07060B0EB016F04D1002002B0BDE85C
:100D8000F08100BF012002B0BDE8F0816069002859
:100D900040F20000C4F247207CD00121C0F8801E40
:100DA000FFF7C2FD054600BF706F8007B5D4FFF79F
:100DB000BBFD401B0228F7D97BE000BF306C10F070
:100DC00080580AD100200190306C40F0805030648F
:100DD000306C00F080500190019847F20007C4F297
:100DE0000007386840F4807038603868C00527D440
:100DF000386840F480703860FFF796FD054600BF04
:100E00003868C0051CD4FFF78FFD401B0228F7D9B6
:100E10004FE000BFE068002872D00020C4F24720F5
:100E200001210160FFF780FD054600BF30688007A3
:100E30003FF569AFFFF778FD401B0228F6D938E08F
:100E4000A06886F87000A568FFF76EFD002D0546C6
:100E500041F2883712D000BF306F800711D4FFF7FE
:100E600063FD401BB842F7D923E000BFFFF75CFDEC
:100E7000401BB8424FF003003FF680AF306F800751
:100E8000F4D4B8F1000F7FF44BAF306C20F08050F9
:100E9000306445E70021C0F8801EFFF745FD054698
:100EA000706F80077FF539AFFFF73EFD401B0228CA
:100EB000F6D9032002B0BDE8F08100BF0027C4F2DC
:100EC000472700203866FFF72FFD022D05460BD17E
:100ED0003068800128D5FFF727FD401B64284FF0BC
:100EE0000300F5D94AE700BF306880017FF545AFC0
:100EF000FFF71AFD401B64284FF00300F4D93DE7CB
:100F00000020C4F2472000210160FFF70DFD0546D7
:100F1000306880077FF5FEAEFFF706FD401B022814
:100F20004FF00300F4D929E7706848F20001CFF2CE
:100F3000BC0104F11C0500EA010C2ECDE46A41EA73
:100F40000C01ED034FF6FF70114325EA000041EA62
:100F50008311A0F5803041EA0461084370600120EC
:100F60003866FFF7E1FC0446306880013FF505AFC5
:100F7000FFF7DAFC001B64284FF00300F4D9FDE60C
:100F8000411E0020B0EB116F1CBF012070474EF2D4
:100F90001002CEF2000251604EF62351CEF2000153
:100FA000F0230B700721906011607047FEE700008E
:100FB000B0B540F60044C4F2020405462046802144
:100FC0000022FFF7ABFCC5F3001220460121FFF71A
:100FD000A5FCC5F3401220460221FFF79FFCC5F394
:100FE000801220460421FFF799FCEA0920460821D7
:100FF000FFF794FC204620210122FFF78FFC0120FF
:10100000FFF79EFB204620210022FFF787FC0120EE
:10101000FFF796FB05F0010220460121FFF77EFC59
:10102000C5F3400220460221FFF778FCC5F3800299
:1010300020460421FFF772FCC5F3C00220460821B8
:10104000FFF76CFC204620210122FFF767FC0120FE
:10105000FFF776FB204620210022FFF75FFC0120EE
:10106000BDE8B040FFF76CBB6FF03F02002908BF3E
:101070006FF07F021044C0B2FFF79ABF10B528206E
:10108000FFF75EFB40F60044C4F202042046012153
:101090000122FFF743FC204602210122FFF73EFC1C
:1010A000204604210022FFF739FC204608210022B7
:1010B000FFF734FC204620210122FFF72FFC0120FE
:1010C000FFF73EFB204620210022FFF727FC0120EE
:1010D000FFF736FB0520FFF733FB204601210122F5
:1010E000FFF71CFC204602210122FFF717FC2046D7
:1010F00004210022FFF712FC204608210022FFF7FE
:101100000DFC204620210122FFF708FC0120FFF7FB
:1011100017FB204620210022FFF700FC0120FFF7EB
:101120000FFB0120FFF70CFB204601210122FFF7F6
:10113000F5FB204602210122FFF7F0FB20460421A7
:101140000022FFF7EBFB204608210022FFF7E6FB19
:10115000204620210122FFF7E1FB0120FFF7F0FAF2
:10116000204620210022FFF7D9FB0120FFF7E8FAF3
:101170000120FFF7E5FA204601210022FFF7CEFB10
:10118000204602210122FFF7C9FB2046042100224C
:10119000FFF7C4FB204608210022FFF7BFFB2046D3
:1011A00020210122FFF7BAFB0120FFF7C9FA2046F0
:1011B00020210022FFF7B2FB0120FFF7C1FA012036
:1011C000FFF7BEFA2820FFF7F3FE0C20FFF7F0FE32
:1011D0000620FFF7EDFE0120FFF7EAFE0220BDE842
:1011E0001040FFF7ADBA0000B0B540F60044C4F2BD
:1011F00002040546204680210122FFF78FFBC5F33C
:10120000001220460121FFF789FBC5F3401220465A
:101210000221FFF783FBC5F3801220460421FFF76C
:101220007DFBEA0920460821FFF778FB20462021B4
:101230000122FFF773FB0120FFF782FA20462021ED
:101240000022FFF76BFB0120FFF77AFA05F001029D
:1012500020460121FFF762FBC5F340022046022130
:10126000FFF75CFBC5F3800220460421FFF756FB25
:10127000C5F3C00220460821FFF750FB204620217D
:101280000122FFF74BFB0120FFF75AFA20462021ED
:101290000022FFF743FB0120BDE8B040FFF750BA42
:1012A00010B50178002908BF10BD441EC8B2FFF771
:1012B0009BFFA17801340029F8D110BDFEE70000A2
:1012C000FEE700007047000070470000FFF732BBE8
:1012D00070470000FEE7000092B0FFF739FB06AC54
:1012E000201D2C21FFF74CF90220069001200990C7
:1012F00010200A90002520460C95FFF7AFFC28B17E
:10130000EFF3108072B600BFFEE700BF0F20CDE9FB
:10131000010501A80021CDE903550595FFF7B0FBB4
:1013200020B1EFF3108072B6FEE700BF4FF0000B64
:1013300043F63000CDF828B0CDF804B0C4F2020076
:10134000016841F2000741F0100101600168C4F238
:10135000020701F0100101910199CDF804B0016874
:10136000002241F0040101600168052401F004013C
:1013700001910199CDF804B0016841F001010160CB
:10138000016801F0010101910199CDF804B00168F3
:1013900041F008010160016801F008010191019923
:1013A000CDF804B0016841F0020101600068052138
:1013B00000F00200019001983846FFF7AFFAA7F558
:1013C000006528464FF400710022FFF7A7FAA7F541
:1013D000805A50464FF480710022FFF79FFAA7F51C
:1013E00080694846FF210022FFF798FAA7F5406878
:1013F000404628210022FFF791FA06AE0694012408
:1014000038463146CDE9074BCDF824B0FFF7ACF9AB
:101410004FF45450CDE9060B384631460894FFF797
:10142000A3F94FF4007006A981E811082846314657
:10143000CDF824B0FFF798F94FF4807006A981E841
:10144000110850463146CDF824B0FFF78DF9FF2042
:1014500006A981E8110848463146CDF824B0FFF7C7
:1014600083F9282006A981E8110840463146CDF8C5
:1014700024B0FFF779F9FFF701FE40F2000B40F2CC
:101480007007C2F2000BC2F2000700BF41F2000673
:10149000C4F2020630464FF40051FFF739FA044611
:1014A00030464FF48051FFF733FA054630464FF48B
:1014B0008061FFF72DFA814630464FF48071FFF7C7
:1014C00027FA9BF800209BF801303E469BF80270FB
:1014D0000DF1180A41F20D6180465046C0F6000138
:1014E00000973746FEF738FF00200021FFF7BCFDCC
:1014F0005046FFF7D5FE307814B178B903E000BF4D
:1015000050B100203870002D49D0B9F1000F51D0F2
:10151000B8F1000FBAD159E001203870FFF704FA92
:101520007968401AB0F57A7F02D3FFF7FDF9786049
:101530009BF802000130C4B23B2C8BF8020017D993
:101540009BF8010000240130C1B23C298BF8024015
:101550008BF801000ED39BF800008BF8014001309E
:10156000C1B2172988BF00208BF80000002001E0DD
:101570009BF801009BF8002006AE41F20D61C3B25A
:101580003046C0F600010094FEF7E6FE0020002180
:10159000FFF76AFD3046FFF783FE002DB5D19BF8BB
:1015A000000001308BF80000C820FFF7C9F8B9F13E
:1015B000000FADD19BF8010001308BF80100C8206D
:1015C000FFF7BEF8B8F1000F7FF460AF9BF80200A0
:1015D00001308BF80200C820FFF7B2F856E7303828
:1015E0000A2801D20120704700207047040000083B
:1015F00000000000000000020001000010000000D8
:1016000000000000000102030406070809434C4FD4
:10161000434B3A20253032643A253032643A253043
:10162000326400004816000800000020100000008E
:10163000C0010008581600081000002070060000C5
:10164000DC010008000000000E030500010000009E
:08165000100000000024F4006A
:040000050800018569
:00000001FF
