:020000040800F2
:10000000C006002021020008110F0008090F000897
:100010000D0F00081904000811100008000000006E
:10002000000000000000000000000000190F0008A0
:100030001D04000800000000150F00081D0F000837
:100040003B0200083B0200083B0200083B0200089C
:100050003B0200083B0200083B0200083B0200088C
:100060003B0200083B0200083B0200083B0200087C
:100070003B0200083B0200083B0200083B0200086C
:100080003B0200083B0200083B0200083B0200085C
:100090003B0200083B0200083B0200083B0200084C
:1000A0003B0200083B0200083B0200083B0200083C
:1000B0003B0200083B0200083B0200083B0200082C
:1000C0003B0200083B0200083B0200083B0200081C
:1000D0003B0200083B0200083B0200083B0200080C
:1000E0003B0200083B0200083B0200083B020008FC
:1000F0003B0200083B0200083B0200083B020008EC
:100100003B0200083B0200083B0200083B020008DB
:100110003B0200083B0200083B0200083B020008CB
:100120003B0200083B0200083B0200083B020008BB
:100130003B0200083B0200083B0200083B020008AB
:100140003B0200083B0200083B0200083B0200089B
:100150003B0200083B0200083B0200083B0200088B
:100160003B0200083B0200083B0200083B0200087B
:100170003B0200083B0200083B02000800000000B0
:100180003B02000800F002F800F03AF80AA090E8FC
:10019000000C82448344AAF10107DA4501D100F042
:1001A0002FF8AFF2090EBAE80F0013F0010F18BFD5
:1001B000FB1A43F001031847580F0000780F0000A6
:1001C000103A24BF78C878C1FAD8520724BF30C883
:1001D00030C144BF04680C60704700000023002455
:1001E00000250026103A28BF78C1FBD8520728BF47
:1001F00030C148BF0B6070471FB51FBD10B510BDA3
:1002000000F0D0F81146FFF7F7FF00F003FF00F011
:10021000EEF803B4FFF7F2FF03BC00F0F5F80000BE
:100220000948804709480047FEE7FEE7FEE7FEE78A
:10023000FEE7FEE7FEE7FEE7FEE7FEE704480549C6
:10024000054A064B70470000210F00088501000891
:10025000C0000020C0060020C0020020C002002014
:1002600053EA020C00F069802DE9F04B4FF00006D4
:10027000002B1FBFB3FA83F503FA05F424FA05F641
:100280005E4012BF1643B2FA82F502FA05F4C5F1D8
:1002900020051EBF22FA05FC44EA0C04203556EA6C
:1002A000044C4FEA144418BF641C4FF000084FF090
:1002B0000009904271EB030C39D3002919BFB1FA40
:1002C00081F701FA07F6B0FA80F700FA07F6C7F1EE
:1002D00020071EBF20FA07FC46EA0C062037B6FBB3
:1002E000F4FCA7EB0507103F07F01F0BCBF120062E
:1002F0002CFA06F60CFA0BFB44BFB3460026202F5F
:10030000A4BF5E464FF0000B5BEA060C08BF4FF03F
:10031000010B19EB0B0948EB0608ABFB027C06FB53
:1003200002CC0BFB03CCC01B71EB0C01C1E70B46ED
:10033000024641464846BDE8F08B13B5084318BF56
:100340004FF0FF300146AFF30080BDE81C4070471E
:100350004FF0000200B5134694469646203922BF5E
:10036000A0E80C50A0E80C50B1F12001BFF4F7AFA9
:10037000090728BFA0E80C5048BF0CC05DF804EB8B
:10038000890028BF40F8042B08BF704748BF20F8F9
:10039000022B11F0804F18BF00F8012B70477047F7
:1003A00070477047754600F02BF8AE460500694669
:1003B000534620F00700854618B020B5FFF73EFFF2
:1003C000BDE820404FF000064FF000074FF0000856
:1003D0004FF0000BAC46ACE8C009ACE8C009ACE893
:1003E000C009ACE8C00921F007018D46704710B57F
:1003F0000446AFF300802046BDE81040FFF709BF78
:10040000004870471000002001491820ABBEFEE7ED
:100410002600020070470000FEE700007047000061
:10042000B0B5044600F0E4F8054640F20000C2F220
:1004300000000078611C18BF044400BF00F0D8F829
:10044000401BA042FAD3B0BD2DE9F04F82B00C683A
:10045000002C00F0C98000F13E4742F2000507F190
:10046000FF77C4F20205092243F6004E4FEAB72691
:10047000A84208BF0822C4F2010E082E38BF4FEA76
:10048000B722002600274FF0000800920BE000BFC3
:100490000C6808F1010834FA08F207F1040706F1C4
:1004A000020600F0A180012202FA08FC14EA0C09FD
:1004B000EED0D1F804B003220BF00304651EB24065
:1004C000012D6FEA020A11D88268CD6802EA0A0299
:1004D000B5402A4382604268CBF3001522EA0C0241
:1004E00005FA08F52A43426004E000BF032C01D15D
:1004F00003241DE0C2688D6802EA0A02B5402A435F
:10050000022CC26014D16FF0030202EA58020244C6
:10051000D2F820C007F01C040F230D69A3402CEA79
:100520000303A5402B431362D1F804B00BF003047E
:10053000026804FA06F302EA0A021A431BF4403F77
:100540000260A5D0002243F644030192C4F20203E4
:100550001A684FF6084C42F480421A601A68CFF6C7
:10056000FF7C02F480420192019A28F00302724457
:1005700052F80C3007F00C050F24AC40A343009C4C
:1005800004FA05F52B4342F80C30DEF808204B68DE
:1005900042EA090543F60C4CDC0258BF22EA090581
:1005A000CEF80850C4F2010CDCF800209C0242EAAC
:1005B000090558BF22EA0905CCF80050DEF80420EE
:1005C0009C0342EA090558BF22EA0905CEF8045007
:1005D000DEF80020DB0342EA090558BF22EA0905DC
:1005E000CEF8005054E700BF02B0BDE8F08F000025
:1005F00040F2B800C2F200000068704740F200000C
:1006000040F2B801C2F20000C2F2000100780A68AC
:10061000104408607047000080B543F60040C4F203
:100620000200016841F400710160016841F48061D9
:100630000160016841F480710160032000F074F8EA
:100640000F2000F005F800F027F8002080BD000022
:1006500070B540F20006C2F2000640F2080132789E
:10066000C2F200014FF47A730968B3FBF2F2044658
:10067000B1FBF2F1084600F00FFB0F2C4FF0010523
:1006800008D838B94FF0FF3021460022002500F08D
:100690001FF87460284670BD82B0002043F6400108
:1006A0000190C4F202014A6842F480424A604A68FA
:1006B00002F480420192019A0090086840F0805054
:1006C0000860086800F080500090009802B0704701
:1006D00010B54EF60C5CCEF2000CDCF80030C3F323
:1006E000022E8EF00704042C28BF0424BEF103035D
:1006F0004FF0FF3E0EFA04F438BF0023A1439940A7
:100700000EFA03F39A43114300F00F0200F1604325
:100710000901043A03F564436244002848BF02F12A
:100720000C03197010BD00004EF60C51CEF2000102
:100730000A684FF6FF031A4060F30A2242F0806015
:1007400040F0FD70086070472DE9F041002800F08E
:10075000C78043F60808C4F202080446D8F8F80334
:100760000D4600F00F00884208D288F8F853D8F8F8
:10077000F80300F00F00A84240F0B2802068810723
:1007800017D5410705D5D8F8001041F4E051C8F855
:100790000010010705D5D8F8001041F46041C8F8F1
:1007A0000010D8F80010A26821F0F0011143C8F839
:1007B0000010C00720D1D8F8F80300F00F00A842BD
:1007C00008D988F8F853D8F8F80300F00F00A842C9
:1007D00040F08680206841071CD4000724D4D8F854
:1007E000000000F00C0008282DD004284ED147F658
:1007F0004000C0F27D104DE06068022864D00128FE
:100800006AD158F8081C89035CBF0120BDE8F0815B
:100810006AE000BFD8F80010E26821F4E05111430B
:10082000C8F800100007DAD5D8F80000216920F4D4
:10083000604040EAC100C8F80000D8F8000000F0AD
:100840000C000828D1D158F8040C58F8041C58F8AA
:10085000043C490247F64001C0F27D1100F03F021E
:10086000C3F388105CBF42F20041C0F2F401A1FB67
:1008700000010023FFF7F4FC58F8041C0222C1F326
:10088000014102EB4101B0FBF1F003E042F2004014
:10089000C0F2F400D8F8001041F2F802C1F30311DD
:1008A000C0F60002515C40F2080220FA01F140F269
:1008B0000400C2F200000068C2F200021160FFF7FB
:1008C000C7FE0020BDE8F08158F8081C89015CBF14
:1008D0000120BDE8F08107E058F8081C890703D41F
:1008E0000120BDE8F08100BFD8F8001021F003011D
:1008F0000843C8F80000FFF77BFE064641F2883740
:10090000D8F80000616800F00C00B0EB810F3FF4F4
:1009100052AFFFF76DFE801BB842F1D90320BDE84E
:10092000F081000040F2080043F60801C2F2000026
:10093000C4F202010068096841F20812C1F3822181
:10094000C0F60002515CC8407047000040F2080049
:1009500043F60801C2F20000C4F20201006809680F
:1009600041F20812C1F34231C0F60002515CC840A6
:10097000704700002DE9F04182B0002800F08E8021
:100980000446007843F60006C007C4F202062FD0E2
:10099000B06800F00C00042806D13068800327D529
:1009A000606828BB7AE000BFB06800F00C0008283F
:1009B00002D170684002F0D46068B0706568FFF7DB
:1009C00017FE002D054610D03068800310D4FFF7C5
:1009D0000FFE401B6428F7D9F7E000BFFFF708FEC1
:1009E000401B64284FF0030054D830688003F5D4CE
:1009F000207880071AD5B06810F00C0F09D0B068C5
:100A000000F00C00082840F091807068400200F16E
:100A10008D803068800702D5E06801283ED13068BB
:100A2000216920F0F80040EAC1003060207800071A
:100A300038D4207840074DD4A56955B3B06800F08C
:100A40000C00082840F0C680012D27D07068E169AD
:100A500000F480028A4221D1216A00F03F028A42DA
:100A60001CD147F6C071626A0140B1EB821F15D1FB
:100A7000A16A4FF6FF73C903994300F44032A1F510
:100A800080318A420AD1E16A00F07060B0EB016FF8
:100A900004D1002002B0BDE8F08100BF012002B007
:100AA000BDE8F0816069002840F20000C4F24720F0
:100AB0007CD00121C0F8801EFFF79AFD054600BFDB
:100AC000706F8007B5D4FFF793FD401B0228F7D95C
:100AD0007BE000BF306C10F080580AD100200190FC
:100AE000306C40F080503064306C00F080500190E9
:100AF000019847F20007C4F20007386840F480709C
:100B000038603868C00527D4386840F48070386091
:100B1000FFF76EFD054600BF3868C0051CD4FFF71F
:100B200067FD401B0228F7D94FE000BFE0680028AE
:100B300072D00020C4F2472001210160FFF758FD68
:100B4000054600BF306880073FF569AFFFF750FDED
:100B5000401B0228F6D938E0A06886F87000A56826
:100B6000FFF746FD002D054641F2883712D000BF41
:100B7000306F800711D4FFF73BFD401BB842F7D917
:100B800023E000BFFFF734FD401BB8424FF00300E5
:100B90003FF680AF306F8007F4D4B8F1000F7FF4D8
:100BA0004BAF306C20F08050306445E70021C0F836
:100BB000801EFFF71DFD0546706F80077FF539AF7A
:100BC000FFF716FD401B0228F6D9032002B0BDE84E
:100BD000F08100BF0027C4F2472700203866FFF7E6
:100BE00007FD022D05460BD13068800128D5FFF79F
:100BF000FFFC401B64284FF00300F5D94AE700BF13
:100C0000306880017FF545AFFFF7F2FC401B642898
:100C10004FF00300F4D93DE70020C4F24720002143
:100C20000160FFF7E5FC0546306880077FF5FEAE02
:100C3000FFF7DEFC401B02284FF00300F4D929E740
:100C4000706848F20001CFF2BC0104F11C0500EA13
:100C5000010C2ECDE46A41EA0C01ED034FF6FF7062
:100C6000114325EA000041EA8311A0F5803041EAF2
:100C700004610843706001203866FFF7B9FC044640
:100C8000306880013FF505AFFFF7B2FC001B642818
:100C90004FF00300F4D9FDE6411E0020B0EB116FC8
:100CA0001CBF012070474EF21002CEF200025160CC
:100CB0004EF62351CEF20001F0230B700721906015
:100CC00011607047002804BF0120704710B504462A
:100CD00090F8410028B9002084F84000204600F038
:100CE00021F8242084F841002068C16821F40051D3
:100CF000C160204600F016F92068016921F4904196
:100D00000161416921F02A014161C16841F400514A
:100D1000C16000202021606484F8411084F84210F2
:100D2000606310BD80B586B0016841F20000C4F276
:100D30000100814202D006B080BD00BF002143F611
:100D400030020191C4F20202536900F5704043F091
:100D500010035361536903F010030193019B019148
:100D6000136843F001031360126802F0010201925C
:100D7000019A4FF4C06201920222CDE902210321BF
:100D800004910721059101A9FFF75EFB06B080BD24
:100D90002DE9F041044690F8410020281CBF0220B4
:100DA000BDE8F0810D4600294FF0010000F0AA8057
:100DB0001646002A08BFBDE8F081002060642120AB
:100DC000984684F84100FFF713FCA684E684A168E6
:100DD0000646B1F5805F02D12069002862D02F4617
:100DE0000025E08C002861D018F1010018D0B8F17E
:100DF000000F37D1216808E017F8010B4860E08C3C
:100E00000138E084E08C002851D00868000673D5D2
:100E1000002FF1D135F8020B00276FF35F20EDE7CB
:100E2000216802E00868000609D40868000606D4B4
:100E3000086800065CBF08685FEA0060F2D51FB171
:100E400017F8010B05E000BF35F8020B00276FF320
:100E50005F204860E08C0138E084E08C0028E4D119
:100E600025E000BF216800BF0868000608D4FFF72E
:100E7000BFFB801B404541D82168C868F4E700BF2C
:100E800017B117F8010B04E035F8020B00276FF3D8
:100E90005F204860E08C0138E084E08C0028E3D1DA
:100EA00005E000BF0027E08C00289DD1216808687C
:100EB00040061FD4B8F1000F1ED018F101000FD169
:100EC0000868400616D40868400613D4086840062F
:100ED00010D4086840064FF00000F1D50FE000BFC5
:100EE000FFF786FB801B404508D82068C168006872
:100EF0004006F5D5002002E0FFF77AFB0320202111
:100F000084F84110BDE8F081FEE70000FEE7000034
:100F1000FEE700007047000070470000FFF76EBB5F
:100F20007047000010B504460068D4E902C2236986
:100F3000016921F4405111430161626943EA0C01E6
:100F4000E3691143C268194349F20C639A431143A0
:100F5000C1604169A26921F4407141F2004311432B
:100F600040F48062C4F201039A42416102D1FFF76A
:100F7000EDFC01E0FFF7D6FCE26961681923B2F5E8
:100F8000004F03FB00F023D14900B0FBF1F048F221
:100F90001F51C5F2EB11A0FB01235A094FF69C73B8
:100FA000C0F6FF7303F1805302FB0300322303EB0F
:100FB000C000A0FB01014FF4F87000EA111000EB33
:100FC0000210C1F3421108442168886010BD00BFBF
:100FD0008900B0FBF1F048F21F51C5F2EB11A0FB04
:100FE00001235A094FF69C73C0F6FF7302FB0300FE
:100FF000322303EB0010A0FB0101F02000EA5110A6
:1010000000EB0210C1F3431108442168886010BD51
:10101000FEE7000092B0FFF7FFFA06AC201D2C217E
:10102000FFF796F9022006900120099010200A90FF
:10103000002520460C95FFF79DFC28B1EFF31080AA
:1010400072B600BFFEE700BF0F20CDE9010501A881
:101050000021CDE903550595FFF776FB20B1EFF3AD
:10106000108072B6FEE700BF002143F63000069103
:10107000C4F2020002684FF4165342F0010202600B
:10108000006841F2000200F001000690069840F26C
:101090007000C2F20000C4F201020C25C0E9002376
:1010A000C0E90211C0E90415C0E90611FFF70AFE04
:1010B00020B1EFF3108072B6FEE700BF44F649207E
:1010C000089044F24560C4F64700079044F241207E
:1010D00040F27004C4F24340C2F2000406AD069030
:1010E000204629460A224FF47A73FFF751FE4FF447
:1010F0007A70FFF795F9F3E70000000000000000A8
:1011000001020304060708090000000001020304AD
:10111000301100080000002010000000C00100088D
:101120004011000810000020B0060000DC0100089B
:1011300001000000100000000024F4000000000086
:040000050800018569
:00000001FF
