:020000040800F2
:10000000880600202902000855120008AD110008DA
:1000100051120008390700086912000800000000AA
:100020000000000000000000000000005D12000859
:10003000650900080000000059120008611200085C
:10004000430200084302000843020008430200087C
:10005000430200084302000843020008430200086C
:10006000430200084302000843020008430200085C
:10007000430200084302000843020008430200084C
:10008000430200084302000843020008430200083C
:10009000430200084302000843020008430200082C
:1000A000430200084302000843020008430200081C
:1000B000430200084302000843020008430200080C
:1000C00043020008430200084302000843020008FC
:1000D00043020008430200084302000843020008EC
:1000E00043020008430200084302000843020008DC
:1000F00043020008430200084302000843020008CC
:1001000043020008430200084302000843020008BB
:1001100043020008430200084302000843020008AB
:10012000430200084302000843020008430200089B
:10013000430200084302000843020008430200088B
:10014000430200084302000843020008430200087B
:10015000430200084302000843020008430200086B
:10016000430200084302000843020008430200085B
:100170004302000843020008430200080000000098
:100180004302000800F002F800F03FF80AA090E8EF
:10019000000C82448344AAF10107DA4501D100F042
:1001A00034F8AFF2090EBAE80F0013F0010F18BFD0
:1001B000FB1A43F0010318473C1500005C150000D2
:1001C000103A24BF78C878C1FAD8520724BF30C883
:1001D00030C144BF04680C60704700000023002455
:1001E00000250026103A28BF78C1FBD8520728BF47
:1001F00030C148BF0B607047642900F0E9800020DF
:1002000070471FB51FBD10B510BD00F05AFA11465A
:10021000FFF7F7FF01F02AF800F078FA03B4FFF7D0
:10022000F2FF03BC00F080FA094880470948004704
:10023000FEE7FEE7FEE7FEE7FEE7FEE7FEE7FEE796
:10024000FEE7FEE704480549054A064B70470000F3
:10025000651200088501000888000020880600203B
:10026000880200208802002053EA020C00F0698016
:100270002DE9F04B4FF00006002B1FBFB3FA83F5BA
:1002800003FA05F424FA05F65E4012BF1643B2FAEB
:1002900082F502FA05F4C5F120051EBF22FA05FC1D
:1002A00044EA0C04203556EA044C4FEA144418BFC3
:1002B000641C4FF000084FF00009904271EB030CF2
:1002C00039D3002919BFB1FA81F701FA07F6B0FA5C
:1002D00080F700FA07F6C7F120071EBF20FA07FCD7
:1002E00046EA0C062037B6FBF4FCA7EB0507103FE7
:1002F00007F01F0BCBF120062CFA06F60CFA0BFBCD
:1003000044BFB3460026202FA4BF5E464FF0000B2B
:100310005BEA060C08BF4FF0010B19EB0B0948EB29
:100320000608ABFB027C06FB02CC0BFB03CCC01B1C
:1003300071EB0C01C1E70B46024641464846BDE859
:10034000F08B13B5084318BF4FF0FF300146AFF3F1
:100350000080BDE81C4070470FB41CB5074B06AACF
:100360007B4469460090059800F093F900206946A7
:1003700000F0A2F91CBC5DF814FB0000550300005E
:1003800070B5044685690068C10601D5302600E0D5
:100390002026C00707D070BDD4E901213046904720
:1003A000206A401C20626D1EF6D570BD70B50446F3
:1003B00085690078C00707D170BDD4E901212020EC
:1003C0009047206A401C20626D1EF6D570BD00006B
:1003D0002DE9F0410646002410687529314616A51E
:1003E00010D0AFF30080002802DA404213A507E0E6
:1003F00031688A0701D512A502E0490704D511A585
:10040000012401E0AFF3008000210A2206F1240755
:1004100009E0B0FBF2FCB0FBF2F302FB1C00303051
:1004200078541846491C0028F3D123462A46304602
:10043000BDE8F04100F0CEB8000000002D00000043
:100440002B000000200000002DE9F05F89460446E3
:100450004FF0000ADFF824B1FB44C0F820A020468A
:10046000E168884700287DD0252806D0D4E90121FD
:100470009047206A401C2062F1E700255F46204635
:10048000E16888472028064607DB312E05D2B819D7
:1004900010F8200C08B10543F1E7A80701D525F0B5
:1004A0000405C4F81CA00027C4F818A02A2E09D0FF
:1004B000304601F0FDF838B304EB8708303EC8F849
:1004C000186019E059F8041B204604EB870291617B
:1004D000E1688847012F064618D1E069002820DA34
:1004E00025F020051DE0D8F8180000EB800006EB91
:1004F00040003038C8F818002046E16888470646B2
:1005000001F0D6F80028EED1012F0AD02E2E08D106
:100510002046E16888477F1C0646022F45F02005EB
:10052000C4DBA069002803DA404245F00105A06160
:10053000E80701D025F01005A6B1A6F14100192861
:1005400002D8203645F400654A46314620462560EB
:100550004D46FFF751FE60B1012807D0ED1D25F093
:10056000070000E007E000F1080978E705F1040959
:1005700075E730467AE7206ABDE8F09F6212000016
:100580004FF0000200B5134694469646203922BF2C
:10059000A0E80C50A0E80C50B1F12001BFF4F7AF77
:1005A000090728BFA0E80C5048BF0CC05DF804EB59
:1005B000890028BF40F8042B08BF704748BF20F8C7
:1005C000022B11F0804F18BF00F8012B70477047C5
:1005D000704770472DE9F0470D469946924604460C
:1005E00000F124080168880604D5E06921F01001B3
:1005F000216000E00120A84201DD471B00E0002748
:10060000A1697A1902EB0900081AA0612078C006D6
:1006100002D42046FFF7B4FE002608E0D4E9012109
:100620001AF806009047206A401C761C20624E454E
:10063000F4DB2078C0060AD52046FFF7A1FE06E0CD
:10064000D4E9012130209047206A401C2062381EE6
:10065000A7F10107F4DC07E0D4E9012118F805004F
:100660009047206A401C2062281EA5F10105F3DC9A
:100670002046FFF79BFE2078000602D50220BDE849
:10068000F0870120FBE7000001694A1C026108783D
:10069000704700B58FB0CDE90131002105910549C2
:1006A0007944CDE9031011466846FFF7CDFE0FB03F
:1006B00000BD0000E5FFFFFF0A6802F8010B0A60B9
:1006C0007047754600F02CF8AE4605006946534663
:1006D00020F00700854618B020B5FFF7B3FDBDE850
:1006E00020404FF000064FF000074FF000084FF099
:1006F000000BAC46ACE8C009ACE8C009ACE8C009E6
:10070000ACE8C00921F007018D46704710B50446DA
:10071000AFF300802046BDE81040FFF77FBD00002A
:10072000004870471000002001491820ABBEFEE7CA
:100730002600020070470000FEE70000B0B540F25E
:100740000044C4F202040546C20B2046202100F0FA
:10075000E5F920460821002200F0E0F920460821B2
:10076000012200F0DBF9C5F380322046202100F0A1
:10077000D5F920460821002200F0D0F920460821B2
:10078000012200F0CBF9C5F340322046202100F0D1
:10079000C5F920460821002200F0C0F920460821B2
:1007A000012200F0BBF9C5F300322046202100F001
:1007B000B5F920460821002200F0B0F920460821B2
:1007C000012200F0ABF9C5F3C0222046202100F041
:1007D000A5F920460821002200F0A0F920460821B2
:1007E000012200F09BF9C5F380222046202100F071
:1007F00095F920460821002200F090F920460821B2
:10080000012200F08BF9C5F340222046202100F0A0
:1008100085F920460821002200F080F920460821B1
:10082000012200F07BF9C5F300222046202100F0D0
:1008300075F920460821002200F070F920460821B1
:10084000012200F06BF9E8B2C2092046202100F035
:1008500065F920460821002200F060F920460821B1
:10086000012200F05BF9C5F380122046202100F040
:1008700055F920460821002200F050F920460821B1
:10088000012200F04BF9C5F340122046202100F070
:1008900045F920460821002200F040F920460821B1
:1008A000012200F03BF9C5F300122046202100F0A0
:1008B00035F920460821002200F030F920460821B1
:1008C000012200F02BF9C5F3C0022046202100F0E0
:1008D00025F920460821002200F020F920460821B1
:1008E000012200F01BF9C5F380022046202100F010
:1008F00015F920460821002200F010F920460821B1
:10090000012200F00BF9C5F340022046202100F03F
:1009100005F920460821002200F000F920460821B0
:10092000012200F0FBF805F001022046202100F032
:10093000F5F820460821002200F0F0F820460821B2
:10094000012200F0EBF804F540642046012100226A
:1009500000F0E4F8204601210122BDE8B04000F09B
:10096000DDB80000704700002DE9F04F82B00C6840
:10097000002C00F0C98000F13E4742F2000507F16B
:10098000FF77C4F20205092243F6004E4FEAB7266C
:10099000A84208BF0822C4F2010E082E38BF4FEA51
:1009A000B722002600274FF0000800920BE000BF9E
:1009B0000C6808F1010834FA08F207F1040706F19F
:1009C000020600F0A180012202FA08FC14EA0C09D8
:1009D000EED0D1F804B003220BF00304651EB24040
:1009E000012D6FEA020A11D88268CD6802EA0A0274
:1009F000B5402A4382604268CBF3001522EA0C021C
:100A000005FA08F52A43426004E000BF032C01D137
:100A100003241DE0C2688D6802EA0A02B5402A4339
:100A2000022CC26014D16FF0030202EA58020244A1
:100A3000D2F820C007F01C040F230D69A3402CEA54
:100A40000303A5402B431362D1F804B00BF0030459
:100A5000026804FA06F302EA0A021A431BF4403F52
:100A60000260A5D0002243F644030192C4F20203BF
:100A70001A684FF6084C42F480421A601A68CFF6A2
:100A8000FF7C02F480420192019A28F00302724432
:100A900052F80C3007F00C050F24AC40A343009C27
:100AA00004FA05F52B4342F80C30DEF808204B68B9
:100AB00042EA090543F60C4CDC0258BF22EA09055C
:100AC000CEF80850C4F2010CDCF800209C0242EA87
:100AD000090558BF22EA0905CCF80050DEF80420C9
:100AE0009C0342EA090558BF22EA0905CEF80450E2
:100AF000DEF80020DB0342EA090558BF22EA0905B7
:100B0000CEF8005054E700BF02B0BDE8F08F0000FF
:100B10000069084018BF012070470000002A08BF84
:100B2000090481617047000040F28400C2F20000B5
:100B30000068704740F2040040F28401C2F20000F5
:100B4000C2F2000100780A68104408607047000093
:100B500080B543F60040C4F20200016841F4007120
:100B60000160016841F480610160016841F48071B5
:100B70000160032000F074F80F2000F005F800F089
:100B800027F8002080BD000070B540F20406C2F2D4
:100B9000000640F20C013278C2F200014FF47A7381
:100BA0000968B3FBF2F20446B1FBF2F1084600F02B
:100BB000E7FA0F2C4FF0010508D838B94FF0FF3095
:100BC00021460022002500F01FF87460284670BD01
:100BD00082B0002043F640010190C4F202014A684D
:100BE00042F480424A604A6802F480420192019ACB
:100BF0000090086840F080500860086800F080505D
:100C00000090009802B0704710B54EF60C5CCEF222
:100C1000000CDCF80030C3F3022E8EF00704042C25
:100C200028BF0424BEF103034FF0FF3E0EFA04F484
:100C300038BF0023A14399400EFA03F39A431143AE
:100C400000F00F0200F160430901043A03F5644328
:100C50006244002848BF02F10C03197010BD000067
:100C60004EF60C51CEF200010A684FF6FF031A400F
:100C700060F30A2242F0806040F0FD700860704727
:100C80002DE9F041002800F0C78043F60808C4F2BF
:100C900002080446D8F8F8030D4600F00F00884219
:100CA00008D288F8F853D8F8F80300F00F00A842EB
:100CB00040F0B2802068810717D5410705D5D8F8E4
:100CC000001041F4E051C8F80010010705D5D8F82C
:100CD000001041F46041C8F80010D8F80010A26874
:100CE00021F0F0011143C8F80010C00720D1D8F856
:100CF000F80300F00F00A84208D988F8F853D8F894
:100D0000F80300F00F00A84240F0868020684107F9
:100D10001CD4000724D4D8F8000000F00C000828E8
:100D20002DD004284ED147F64000C0F27D104DE092
:100D30006068022864D001286AD158F8081C890329
:100D40005CBF0120BDE8F0816AE000BFD8F8001068
:100D5000E26821F4E0511143C8F800100007DAD529
:100D6000D8F80000216920F4604040EAC100C8F8CA
:100D70000000D8F8000000F00C000828D1D158F885
:100D8000040C58F8041C58F8043C490247F640018A
:100D9000C0F27D1100F03F02C3F388105CBF42F245
:100DA0000041C0F2F401A1FB00010023FFF75CFA4F
:100DB00058F8041C0222C1F3014102EB4101B0FBCF
:100DC000F1F003E042F20040C0F2F400D8F8001065
:100DD00041F2D962C1F30311C0F60002515C40F246
:100DE0000C0220FA01F140F20800C2F20000006893
:100DF000C2F200021160FFF7C7FE0020BDE8F081DB
:100E000058F8081C89015CBF0120BDE8F08107E0AB
:100E100058F8081C890703D40120BDE8F08100BF01
:100E2000D8F8001021F003010843C8F80000FFF7CC
:100E30007BFE064641F28837D8F80000616800F072
:100E40000C00B0EB810F3FF452AFFFF76DFE801B3B
:100E5000B842F1D90320BDE8F08100002DE9F0414E
:100E600082B0002800F08E800446007843F6000629
:100E7000C007C4F202062FD0B06800F00C000428AE
:100E800006D13068800327D5606828BB7AE000BFB0
:100E9000B06800F00C00082802D170684002F0D45D
:100EA0006068B0706568FFF73FFE002D054610D002
:100EB0003068800310D4FFF737FE401B6428F7D951
:100EC000F7E000BFFFF730FE401B64284FF003003F
:100ED00054D830688003F5D4207880071AD5B068DC
:100EE00010F00C0F09D0B06800F00C00082840F09A
:100EF00091807068400200F18D803068800702D5D3
:100F0000E06801283ED13068216920F0F80040EA0D
:100F1000C10030602078000738D4207840074DD4D5
:100F2000A56955B3B06800F00C00082840F0C680F1
:100F3000012D27D07068E16900F480028A4221D136
:100F4000216A00F03F028A421CD147F6C071626AF2
:100F50000140B1EB821F15D1A16A4FF6FF73C9039F
:100F6000994300F44032A1F580318A420AD1E16A06
:100F700000F07060B0EB016F04D1002002B0BDE85A
:100F8000F08100BF012002B0BDE8F0816069002857
:100F900040F20000C4F247207CD00121C0F8801E3E
:100FA000FFF7C2FD054600BF706F8007B5D4FFF79D
:100FB000BBFD401B0228F7D97BE000BF306C10F06E
:100FC00080580AD100200190306C40F0805030648D
:100FD000306C00F080500190019847F20007C4F295
:100FE0000007386840F4807038603868C00527D43E
:100FF000386840F480703860FFF796FD054600BF02
:101000003868C0051CD4FFF78FFD401B0228F7D9B4
:101010004FE000BFE068002872D00020C4F24720F3
:1010200001210160FFF780FD054600BF30688007A1
:101030003FF569AFFFF778FD401B0228F6D938E08D
:10104000A06886F87000A568FFF76EFD002D0546C4
:1010500041F2883712D000BF306F800711D4FFF7FC
:1010600063FD401BB842F7D923E000BFFFF75CFDEA
:10107000401BB8424FF003003FF680AF306F80074F
:10108000F4D4B8F1000F7FF44BAF306C20F08050F7
:10109000306445E70021C0F8801EFFF745FD054696
:1010A000706F80077FF539AFFFF73EFD401B0228C8
:1010B000F6D9032002B0BDE8F08100BF0027C4F2DA
:1010C000472700203866FFF72FFD022D05460BD17C
:1010D0003068800128D5FFF727FD401B64284FF0BA
:1010E0000300F5D94AE700BF306880017FF545AFBE
:1010F000FFF71AFD401B64284FF00300F4D93DE7C9
:101100000020C4F2472000210160FFF70DFD0546D5
:10111000306880077FF5FEAEFFF706FD401B022812
:101120004FF00300F4D929E7706848F20001CFF2CC
:10113000BC0104F11C0500EA010C2ECDE46A41EA71
:101140000C01ED034FF6FF70114325EA000041EA60
:101150008311A0F5803041EA0461084370600120EA
:101160003866FFF7E1FC0446306880013FF505AFC3
:10117000FFF7DAFC001B64284FF00300F4D9FDE60A
:10118000411E0020B0EB116F1CBF012070474EF2D2
:101190001002CEF2000251604EF62351CEF2000151
:1011A000F0230B700721906011607047FEE700008C
:1011B000B0B50446FFF7B8FC40F27005C2F2000576
:1011C0006968401A0A2838BFB0BDFFF7ADFC29781E
:1011D0006860605C60B1A0F13002D2B2092A09D81F
:1011E00041F2CF62C0F600021044303808E000BF80
:1011F000002008E04138C0B2232803D809A21044D7
:10120000007800E0002010A2515C40EA012080B28A
:10121000FFF794FA28780130C1B2092988BF00206D
:101220002870B0BDE7000F004F4700E505A8000D8E
:1012300000A7B7670000CB00AD0000000000000071
:101240000000000000CD00EC0810204080000000ED
:10125000FEE70000FEE70000704700007047000056
:10126000FFF768BC70470000FEE7000092B0FFF790
:101270006FFC06AC201D2C21FFF782F9022006909E
:101280000120099010200A90002520460C95FFF7B8
:10129000E5FD28B1EFF3108072B600BFFEE700BF96
:1012A0000F20CDE9010501A80021CDE903550595E1
:1012B000FFF7E6FC20B1EFF3108072B6FEE700BF47
:1012C000002743F630000A970197C4F20200016834
:1012D00041F2000441F0100101600168C4F202040F
:1012E00001F010010191019901970168002241F07C
:1012F000010101600168052501F0010101910199D9
:101300000197016841F0020101600068052100F0C9
:101310000200019001982046FFF700FCA4F540660A
:101320003046282100224FF02808FFF7F7FB0DF187
:1013300018090695012520464946CDE90757099722
:10134000FFF712FB4FF45450CDE9060720464946FB
:101350000895FFF709FB30464946CDE90685CDE9FA
:101360000877FFF701FB40F2780B40F2000A41F2E8
:10137000E968C2F2000BC2F2000AC0F600080AE0F7
:101380009AF80100002804BF42F22000ADF81800CE
:101390004846FFF70DFFFFF7C7FBDBF80410401AC4
:1013A000B0F57A7FC0F07D80FFF7BEFB9BF801109F
:1013B000CBF80400C1B19BF800000130C1B23C2958
:1013C0008BF8000010D39AF8000000218BF8001071
:1013D000013048F6890141434A0D1201A2EB5151F7
:1013E000A0EB81008AF800009BF802109BF8000037
:1013F00079B118B101388BF800000AE09AF80010B2
:101400003B204A1E8BF80000002908BF3B228AF8C7
:1014100000209AF80020C3B248464146FEF79CFFE0
:101420009BF80300022815D0012837D1FFF77CFB79
:10143000DBF80810401A052820D3FFF775FB9AF84F
:101440000110CBF80800B1FA81F040098AF80100D8
:1014500020BB16E0FFF768FBDBF80810401A0528F0
:1014600014D3FFF761FB9AF80110CBF80800B1FA2A
:1014700081F040098AF801000AE000BF9AF80100F3
:1014800060B942F22000ADF81B0007E09AF80100B5
:10149000002804BF42F22000ADF818004846FFF7CC
:1014A00087FE20464FF40051FFF732FB07462046E7
:1014B0004FF48051FFF72CFB054620464FF4806126
:1014C000FFF726FB064620464FF48071FFF720FB0E
:1014D000002F074611D19BF80100B0FA80F04009B7
:1014E0008BF8010000208BF8020000BF20464FF46B
:1014F0000051FFF70DFB0028F8D085B99BF80200DA
:10150000B0FA80F040098BF8020000208BF801004F
:1015100020464FF48051FFF7FBFA0028F8D0D6B9E7
:101520009BF803004AF6AB2101304143490C01EB23
:101530004101401A8BF80300FFF7F6FACBF80800D8
:1015400001208AF8010000BF20464FF48061FFF7B8
:10155000DFFA0028F8D0002F67D19BF8030001289C
:1015600004D002280FD1504601E000BF5846017850
:1015700048F6890201314A43530D1B01A3EB525235
:10158000A1EB820101709AF800209BF800304846D8
:101590004146FEF7E1FE9BF80300022816D0012821
:1015A00038D1FFF7C1FADBF80810401A052821D31B
:1015B000FFF7BAFA9AF80110CBF80800B1FA81F0F7
:1015C00040098AF8010028BB17E000BFFFF7ACFA1A
:1015D000DBF80810401A052814D3FFF7A5FA9AF88B
:1015E0000110CBF80800B1FA81F040098AF8010037
:1015F0000AE000BF9AF8010060B942F22000ADF89D
:101600001B0007E09AF80100002804BF42F2200006
:10161000ADF818004846FFF7CBFD00BF20464FF459
:101620008071FFF775FA0028F8D09AF800209BF82F
:10163000003048464146FEF78FFE9BF80300022823
:1016400018D001287FF4A4AEFFF76EFADBF808107B
:10165000401A052822D3FFF767FA9AF80110CBF851
:101660000800B1FA81F040098AF8010000287FF4EF
:101670008FAE18E0FFF758FADBF80810401A05287B
:10168000FFF47EAEFFF750FA9AF80110CBF808008D
:10169000B1FA81F040098AF8010073E69AF8010076
:1016A00000287FF475AE42F22000ADF81B006FE613
:1016B00030380A2801D2012070470020704704000A
:1016C000000800000000000000020001000010FD02
:1016D000096EEAE1CBD7A2EFEB00000000000000AA
:1016E000000102030406070809253032642D253065
:1016F00032640000181700080000002010000000ED
:10170000C00100082817000810000020780600001B
:10171000DC010008000000000C01000001000000D6
:08172000100000000024F40099
:040000050800018569
:00000001FF
