:020000040800F2
:1000000078060020290200088D1300082512000838
:100010008913000889070008A113000800000000E8
:100020000000000000000000000000009513000820
:10003000B50900080000000091130008991300089A
:10004000430200084302000843020008430200087C
:10005000430200084302000843020008430200086C
:10006000430200084302000843020008430200085C
:10007000430200084302000843020008430200084C
:10008000430200084302000843020008430200083C
:10009000430200084302000843020008430200082C
:1000A000430200084302000843020008430200081C
:1000B000430200084302000843020008430200080C
:1000C00043020008430200084302000843020008FC
:1000D00043020008430200084302000843020008EC
:1000E00043020008430200084302000843020008DC
:1000F00043020008430200084302000843020008CC
:1001000043020008430200084302000843020008BB
:1001100043020008430200084302000843020008AB
:10012000430200084302000843020008430200089B
:10013000430200084302000843020008430200088B
:10014000430200084302000843020008430200087B
:10015000430200084302000843020008430200086B
:10016000430200084302000843020008430200085B
:100170004302000843020008430200080000000098
:100180004302000800F002F800F03FF80AA090E8EF
:10019000000C82448344AAF10107DA4501D100F042
:1001A00034F8AFF2090EBAE80F0013F0010F18BFD0
:1001B000FB1A43F00103184758140000781400009C
:1001C000103A24BF78C878C1FAD8520724BF30C883
:1001D00030C144BF04680C60704700000023002455
:1001E00000250026103A28BF78C1FBD8520728BF47
:1001F00030C148BF0B607047752900F0E9800020CE
:1002000070471FB51FBD10B510BD00F082FA114632
:10021000FFF7F7FF01F0C6F800F0A0FA03B4FFF70C
:10022000F2FF03BC00F0A8FA0948804709480047DC
:10023000FEE7FEE7FEE7FEE7FEE7FEE7FEE7FEE796
:10024000FEE7FEE704480549054A064B70470000F3
:100250009D13000885010008780000207806002022
:10026000780200207802002053EA020C00F0698036
:100270002DE9F04B4FF00006002B1FBFB3FA83F5BA
:1002800003FA05F424FA05F65E4012BF1643B2FAEB
:1002900082F502FA05F4C5F120051EBF22FA05FC1D
:1002A00044EA0C04203556EA044C4FEA144418BFC3
:1002B000641C4FF000084FF00009904271EB030CF2
:1002C00039D3002919BFB1FA81F701FA07F6B0FA5C
:1002D00080F700FA07F6C7F120071EBF20FA07FCD7
:1002E00046EA0C062037B6FBF4FCA7EB0507103FE7
:1002F00007F01F0BCBF120062CFA06F60CFA0BFBCD
:1003000044BFB3460026202FA4BF5E464FF0000B2B
:100310005BEA060C08BF4FF0010B19EB0B0948EB29
:100320000608ABFB027C06FB02CC0BFB03CCC01B1C
:1003300071EB0C01C1E70B46024641464846BDE859
:10034000F08B13B5084318BF4FF0FF300146AFF3F1
:100350000080BDE81C4070470FB41CB5074B06AACF
:100360007B4469460090059800F0BBF9002069467F
:1003700000F0CAF91CBC5DF814FB0000A5030000E6
:1003800070B5044685690068C10601D5302600E0D5
:100390002026C00707D070BDD4E901213046904720
:1003A000206A401C20626D1EF6D570BD70B50446F3
:1003B00085690078C00707D170BDD4E901212020EC
:1003C0009047206A401C20626D1EF6D570BD00006B
:1003D0002DE9F0410646002410687529314616A51E
:1003E00010D0AFF30080002802DA404213A507E0E6
:1003F00031688A0701D512A502E0490704D511A585
:10040000012401E0AFF3008000210A2206F1240755
:1004100009E0B0FBF2FCB0FBF2F302FB1C00303051
:1004200078541846491C0028F3D123462A46304602
:10043000BDE8F04100F0F6B8000000002D0000001B
:100440002B000000200000002DE9F05F89460446E3
:100450004FF0000ADFF874B1FB44C0F820A020463A
:10046000E1688847002874D0252806D0D4E9012106
:100470009047206A401C2062F1E700265F46204634
:10048000E16888472028054607DB312D05D2781919
:1004900010F8200C08B10643F1E7B00701D526F0AB
:1004A0000406C4F81CA00027C4F818A02A2D09D0FF
:1004B000284601F07DF838B304EB8708303DC8F8D2
:1004C000185019E059F8041B204604EB870291618B
:1004D000E1688847012F054618D1E069002820DA35
:1004E00026F020061DE0D8F8180000EB800005EB90
:1004F00040003038C8F818002046E16888470546B3
:1005000001F056F80028EED1012F0AD02E2D08D187
:100510002046E16888477F1C0546022F46F02006EA
:10052000C4DBA069002803DA404246F00106A0615E
:10053000F00701D026F010066C2D0BD0682D09D0E5
:100540004C2D39D06A2D35D0742D35D07A2D33D03D
:1005500016E038E0E1682F4620468847B842054655
:1005600009D16C2F26D04FF48060E1680643204605
:100570008847054604E06C2F1AD04FF4807006437C
:100580000DB3A5F14100192802D8203546F40066C4
:100590004A462946204626604E46FFF72DFE80B18A
:1005A00001280BD0F61D26F0070000F1080956E7D8
:1005B0004020E4E78020D8E70020D6E706F10409D0
:1005C0004DE7284652E7206ABDE8F09F621100001F
:1005D0004FF0000200B5134694469646203922BFDC
:1005E000A0E80C50A0E80C50B1F12001BFF4F7AF27
:1005F000090728BFA0E80C5048BF0CC05DF804EB09
:10060000890028BF40F8042B08BF704748BF20F876
:10061000022B11F0804F18BF00F8012B7047704774
:10062000704770472DE9F0470D46994692460446BB
:1006300000F124080168880604D5E06921F0100162
:10064000216000E00120A84201DD471B00E00027F7
:10065000A1697A1902EB0900081AA0612078C00686
:1006600002D42046FFF78CFE002608E0D4E90121E1
:100670001AF806009047206A401C761C20624E45FE
:10068000F4DB2078C0060AD52046FFF779FE06E0A5
:10069000D4E9012130209047206A401C2062381E96
:1006A000A7F10107F4DC07E0D4E9012118F80500FF
:1006B0009047206A401C2062281EA5F10105F3DC4A
:1006C0002046FFF773FE2078000602D50220BDE821
:1006D000F0870120FBE7000001694A1C02610878ED
:1006E000704700B58FB0CDE9013100210591054972
:1006F0007944CDE9031011466846FFF7A5FE0FB017
:1007000000BD0000E5FFFFFF0A6802F8010B0A6068
:100710007047754600F02CF8AE4605006946534612
:1007200020F00700854618B020B5FFF78BFDBDE827
:1007300020404FF000064FF000074FF000084FF048
:10074000000BAC46ACE8C009ACE8C009ACE8C00995
:10075000ACE8C00921F007018D46704710B504468A
:10076000AFF300802046BDE81040FFF757BD000002
:10077000004870471000002001491820ABBEFEE77A
:100780002600020070470000FEE70000B0B540F20E
:100790000044C4F202040546C20B2046202100F0AA
:1007A000F9F920460821002200F0F4F9204608213A
:1007B000012200F0EFF9C5F380322046202100F03D
:1007C000E9F920460821002200F0E4F9204608213A
:1007D000012200F0DFF9C5F340322046202100F06D
:1007E000D9F920460821002200F0D4F9204608213A
:1007F000012200F0CFF9C5F300322046202100F09D
:10080000C9F920460821002200F0C4F92046082139
:10081000012200F0BFF9C5F3C0222046202100F0DC
:10082000B9F920460821002200F0B4F92046082139
:10083000012200F0AFF9C5F380222046202100F00C
:10084000A9F920460821002200F0A4F92046082139
:10085000012200F09FF9C5F340222046202100F03C
:1008600099F920460821002200F094F92046082139
:10087000012200F08FF9C5F300222046202100F06C
:1008800089F920460821002200F084F92046082139
:10089000012200F07FF9E8B2C2092046202100F0D1
:1008A00079F920460821002200F074F92046082139
:1008B000012200F06FF9C5F380122046202100F0DC
:1008C00069F920460821002200F064F92046082139
:1008D000012200F05FF9C5F340122046202100F00C
:1008E00059F920460821002200F054F92046082139
:1008F000012200F04FF9C5F300122046202100F03C
:1009000049F920460821002200F044F92046082138
:10091000012200F03FF9C5F3C0022046202100F07B
:1009200039F920460821002200F034F92046082138
:10093000012200F02FF9C5F380022046202100F0AB
:1009400029F920460821002200F024F92046082138
:10095000012200F01FF9C5F340022046202100F0DB
:1009600019F920460821002200F014F92046082138
:10097000012200F00FF905F001022046202100F0CD
:1009800009F920460821002200F004F92046082138
:10099000012200F0FFF804F5406420460121002206
:1009A00000F0F8F8204601210122BDE8B04000F037
:1009B000F1B8000070470000B0B5044600F0F0F850
:1009C000054640F20000C2F200000078611C18BF2A
:1009D000044400BF00F0E4F8401BA042FAD3B0BDCD
:1009E0002DE9F04F82B00C68002C00F0C98000F1B6
:1009F0003E4742F2000507F1FF77C4F202050922E3
:100A000043F6004E4FEAB726A84208BF0822C4F2B8
:100A1000010E082E38BF4FEAB722002600274FF0FC
:100A2000000800920BE000BF0C6808F1010834FADE
:100A300008F207F1040706F1020600F0A180012286
:100A400002FA08FC14EA0C09EED0D1F804B0032233
:100A50000BF00304651EB240012D6FEA020A11D8A3
:100A60008268CD6802EA0A02B5402A438260426881
:100A7000CBF3001522EA0C0205FA08F52A4342607E
:100A800004E000BF032C01D103241DE0C2688D687F
:100A900002EA0A02B5402A43022CC26014D16FF068
:100AA000030202EA58020244D2F820C007F01C04F4
:100AB0000F230D69A3402CEA0303A5402B431362C7
:100AC000D1F804B00BF00304026804FA06F302EA5A
:100AD0000A021A431BF4403F0260A5D0002243F6ED
:100AE00044030192C4F202031A684FF6084C42F420
:100AF00080421A601A68CFF6FF7C02F480420192AD
:100B0000019A28F00302724452F80C3007F00C05E9
:100B10000F24AC40A343009C04FA05F52B4342F894
:100B20000C30DEF808204B6842EA090543F60C4C0D
:100B3000DC0258BF22EA0905CEF80850C4F2010CC5
:100B4000DCF800209C0242EA090558BF22EA0905A8
:100B5000CCF80050DEF804209C0342EA090558BF97
:100B600022EA0905CEF80450DEF80020DB0342EA51
:100B7000090558BF22EA0905CEF8005054E700BF26
:100B800002B0BDE8F08F00000069084018BF0120E6
:100B900070470000002A08BF090481617047000007
:100BA00040F27000C2F200000068704740F200009E
:100BB00040F27001C2F20000C2F2000100780A683F
:100BC000104408607047000080B543F60040C4F24E
:100BD0000200016841F400710160016841F4806124
:100BE0000160016841F480710160032000F074F835
:100BF0000F2000F005F800F027F8002080BD00006D
:100C000070B540F20006C2F2000640F208013278E8
:100C1000C2F200014FF47A730968B3FBF2F20446A2
:100C2000B1FBF2F1084600F0E7FA0F2C4FF0010596
:100C300008D838B94FF0FF3021460022002500F0D7
:100C40001FF87460284670BD82B0002043F6400152
:100C50000190C4F202014A6842F480424A604A6844
:100C600002F480420192019A0090086840F080509E
:100C70000860086800F080500090009802B070474B
:100C800010B54EF60C5CCEF2000CDCF80030C3F36D
:100C9000022E8EF00704042C28BF0424BEF10303A7
:100CA0004FF0FF3E0EFA04F438BF0023A1439940F1
:100CB0000EFA03F39A43114300F00F0200F1604370
:100CC0000901043A03F564436244002848BF02F175
:100CD0000C03197010BD00004EF60C51CEF200014D
:100CE0000A684FF6FF031A4060F30A2242F0806060
:100CF00040F0FD70086070472DE9F041002800F0D9
:100D0000C78043F60808C4F202080446D8F8F8037E
:100D10000D4600F00F00884208D288F8F853D8F842
:100D2000F80300F00F00A84240F0B280206881076D
:100D300017D5410705D5D8F8001041F4E051C8F89F
:100D40000010010705D5D8F8001041F46041C8F83B
:100D50000010D8F80010A26821F0F0011143C8F883
:100D60000010C00720D1D8F8F80300F00F00A84207
:100D700008D988F8F853D8F8F80300F00F00A84213
:100D800040F08680206841071CD4000724D4D8F89E
:100D9000000000F00C0008282DD004284ED147F6A2
:100DA0004000C0F27D104DE06068022864D0012848
:100DB0006AD158F8081C89035CBF0120BDE8F081A6
:100DC0006AE000BFD8F80010E26821F4E051114356
:100DD000C8F800100007DAD5D8F80000216920F41F
:100DE000604040EAC100C8F80000D8F8000000F0F8
:100DF0000C000828D1D158F8040C58F8041C58F8F5
:100E0000043C490247F64001C0F27D1100F03F0268
:100E1000C3F388105CBF42F20041C0F2F401A1FBB1
:100E200000010023FFF720FA58F8041C0222C1F346
:100E3000014102EB4101B0FBF1F003E042F200405E
:100E4000C0F2F400D8F8001041F2FD52C1F30311D2
:100E5000C0F60002515C40F2080220FA01F140F2B3
:100E60000400C2F200000068C2F200021160FFF745
:100E7000C7FE0020BDE8F08158F8081C89015CBF5E
:100E80000120BDE8F08107E058F8081C890703D469
:100E90000120BDE8F08100BFD8F8001021F0030167
:100EA0000843C8F80000FFF77BFE064641F288378A
:100EB000D8F80000616800F00C00B0EB810F3FF43F
:100EC00052AFFFF76DFE801BB842F1D90320BDE899
:100ED000F08100002DE9F04182B0002800F08E8002
:100EE0000446007843F60006C007C4F202062FD07D
:100EF000B06800F00C00042806D13068800327D5C4
:100F0000606828BB7AE000BFB06800F00C000828D9
:100F100002D170684002F0D46068B0706568FFF775
:100F20003FFE002D054610D03068800310D4FFF737
:100F300037FE401B6428F7D9F7E000BFFFF730FE0B
:100F4000401B64284FF0030054D830688003F5D468
:100F5000207880071AD5B06810F00C0F09D0B0685F
:100F600000F00C00082840F091807068400200F109
:100F70008D803068800702D5E06801283ED1306856
:100F8000216920F0F80040EAC100306020780007B5
:100F900038D4207840074DD4A56955B3B06800F027
:100FA0000C00082840F0C680012D27D07068E16948
:100FB00000F480028A4221D1216A00F03F028A4275
:100FC0001CD147F6C071626A0140B1EB821F15D196
:100FD000A16A4FF6FF73C903994300F44032A1F5AB
:100FE00080318A420AD1E16A00F07060B0EB016F93
:100FF00004D1002002B0BDE8F08100BF012002B0A2
:10100000BDE8F0816069002840F20000C4F247208A
:101010007CD00121C0F8801EFFF7C2FD054600BF4D
:10102000706F8007B5D4FFF7BBFD401B0228F7D9CE
:101030007BE000BF306C10F080580AD10020019096
:10104000306C40F080503064306C00F08050019083
:10105000019847F20007C4F20007386840F4807036
:1010600038603868C00527D4386840F4807038602C
:10107000FFF796FD054600BF3868C0051CD4FFF792
:101080008FFD401B0228F7D94FE000BFE068002821
:1010900072D00020C4F2472001210160FFF780FDDB
:1010A000054600BF306880073FF569AFFFF778FD60
:1010B000401B0228F6D938E0A06886F87000A568C1
:1010C000FFF76EFD002D054641F2883712D000BFB4
:1010D000306F800711D4FFF763FD401BB842F7D98A
:1010E00023E000BFFFF75CFD401BB8424FF0030058
:1010F0003FF680AF306F8007F4D4B8F1000F7FF473
:101100004BAF306C20F08050306445E70021C0F8D0
:10111000801EFFF745FD0546706F80077FF539AFEC
:10112000FFF73EFD401B0228F6D9032002B0BDE8C0
:10113000F08100BF0027C4F2472700203866FFF780
:101140002FFD022D05460BD13068800128D5FFF711
:1011500027FD401B64284FF00300F5D94AE700BF84
:10116000306880017FF545AFFFF71AFD401B64280A
:101170004FF00300F4D93DE70020C4F247200021DE
:101180000160FFF70DFD0546306880077FF5FEAE74
:10119000FFF706FD401B02284FF00300F4D929E7B2
:1011A000706848F20001CFF2BC0104F11C0500EAAE
:1011B000010C2ECDE46A41EA0C01ED034FF6FF70FD
:1011C000114325EA000041EA8311A0F5803041EA8D
:1011D00004610843706001203866FFF7E1FC0446B3
:1011E000306880013FF505AFFFF7DAFC001B64288B
:1011F0004FF00300F4D9FDE6411E0020B0EB116F63
:101200001CBF012070474EF21002CEF20002516066
:101210004EF62351CEF20001F0230B7007219060AF
:1012200011607047FEE7000010B504460078B8B1C1
:10123000A0F13001C9B2092906D841F2CF51C0F658
:1012400000010844303808E04138C0B2232807D8EC
:1012500041F2D951C0F600010844007801E000BF16
:10126000002000F50060FFF791FA0220FFF7A4FBD1
:101270006078B8B1A0F13001C9B20A2906D241F2B2
:10128000CF51C0F600010844303808E04138C0B200
:10129000242807D241F2D951C0F600010844007851
:1012A00001E000BF002000F58050FFF76FFA022038
:1012B000FFF782FBA078B8B1A0F13001C9B20A29CA
:1012C00006D241F2CF51C0F600010844303808E0A0
:1012D0004138C0B2242807D241F2D951C0F60001EA
:1012E0000844007801E000BF002000F50050FFF73F
:1012F0004DFA0220FFF760FBE078B8B1A0F13001B1
:10130000C9B20A2906D241F2CF51C0F60001084401
:10131000303808E04138C0B2242807D241F2D95110
:10132000C0F600010844007801E000BF002000F58D
:101330008040FFF72BFA0220FFF73EFB207958B1DF
:10134000A0F13001C9B20A2908D241F2CF51C0F64A
:101350000001084430380AE000200CE04138C0B2F7
:10136000242807D241F2D951C0F600010844007880
:1013700001E000BF002000F50040FFF707FA02205F
:10138000BDE81040FFF718BBFEE70000FEE70000D5
:101390007047000070470000FFF708BC704700006E
:1013A000FEE7000092B0FFF70FFC06AC201D2C21D9
:1013B000FFF70EF9022006900120099010200A90F4
:1013C000002520460C95FFF785FD28B1EFF310802E
:1013D00072B600BFFEE700BF0F20CDE9010501A8EE
:1013E0000021CDE903550595FFF786FC20B1EFF309
:1013F000108072B6FEE700BF002743F630000A9760
:101400000197C4F20200016841F2000541F01001A9
:1014100001600168C4F2020501F010010191019917
:1014200001970168002241F0010101600168052671
:1014300001F00101019101990197016841F0020158
:1014400001600068052100F0020001900198284623
:10145000FFF7A0FBA5F540642046282100224FF0AD
:101460002808FFF797FB069606AE4FF001092846BD
:101470003146CDE907970997FFF7B2FA4FF4545078
:10148000CDE90607284631460897FFF7A9FA00205C
:10149000009020463146CDE9068908970997FFF765
:1014A0009FFA48F29F6943F23907C0F201094FF0F1
:1014B000000A02E04F4528BF4F4606AC20463AA13D
:1014C0003A46FEF749FF2046FFF7AEFE28464FF4A6
:1014D0000051FFF759FB064628464FF48051FFF7AD
:1014E00053FB044628464FF48061FFF74DFB8046CE
:1014F00028464FF48071FFF747FB834676B1BCB1B5
:10150000B8F1000F20D0BBF1000F29D048F29E6047
:10151000C0F20100874236D9CCE700BF28464FF41D
:101520000051FFF731FB0028F8D00137002CE7D13C
:1015300028464FF48051FFF727FB0028F8D0013FE1
:10154000B8F1000FDFD100BF28464FF48061FFF7EC
:101550001BFB0028F8D043F23907BBF1000FD5D1AF
:1015600028464FF48071FFF70FFB0028F8D05FFA90
:101570008AF0B0FA80F04FEA501A48F29E60C0F24A
:101580000100874296D85FEA0A6093D0FFF708FB14
:101590000099401AB0F57A7FFFF48CAF0137FFF75E
:1015A000FFFA009086E700BF2530356C750000001B
:1015B00030380A2801D2012070470020704704000B
:1015C000000800000000000000020001000010FD03
:1015D000096EEAE1CBD7A2EFEBE7000F004F47001F
:1015E000E505A8000D00A7B7670000CB00AD00001F
:1015F00000000000000000000000CD00EC00000032
:1016000000000000000102030406070809000000B2
:10161000301600080000002010000000C001000883
:10162000401600081000002068060000DC010008D9
:1016300001000000100000000024F4000000000081
:040000050800018569
:00000001FF
