:020000040800F2
:10000000C006002021020008DD130008B11100081D
:10001000D913000819040008111700080000000097
:10002000000000000000000000000000E5130008D0
:100030001D04000800000000E1130008B1150008CD
:100040003B0200083B0200083B0200083B0200089C
:100050003B0200083B0200083B0200083B0200088C
:100060003B0200083B0200083B0200083B0200087C
:100070003B0200083B0200083B0200083B0200086C
:100080003B0200083B0200083B0200083B0200085C
:100090003B0200083B0200083B0200083B0200084C
:1000A0003B020008B91500083B0200083B020008AB
:1000B0003B0200083B0200083B0200083B0200082C
:1000C0003B0200083B0200083B0200083B0200081C
:1000D0003B0200083B0200083B0200083B0200080C
:1000E0003B0200083B0200083B0200083B020008FC
:1000F0003B0200083B0200083B0200083B020008EC
:100100003B0200083B0200083B0200083B020008DB
:100110003B0200083B0200083B0200083B020008CB
:100120003B0200083B0200083B0200083B020008BB
:100130003B0200083B0200083B0200083B020008AB
:100140003B0200083B0200083B0200083B0200089B
:100150003B0200083B0200083B0200083B0200088B
:100160003B0200083B0200083B0200083B0200087B
:100170003B0200083B0200083B02000800000000B0
:100180003B02000800F002F800F03AF80AA090E8FC
:10019000000C82448344AAF10107DA4501D100F042
:1001A0002FF8AFF2090EBAE80F0013F0010F18BFD5
:1001B000FB1A43F001031847F4170000141800005D
:1001C000103A24BF78C878C1FAD8520724BF30C883
:1001D00030C144BF04680C60704700000023002455
:1001E00000250026103A28BF78C1FBD8520728BF47
:1001F00030C148BF0B6070471FB51FBD10B510BDA3
:1002000000F0D0F81146FFF7F7FF01F083FA00F095
:10021000EEF803B4FFF7F2FF03BC00F0F5F80000BE
:100220000948804709480047FEE7FEE7FEE7FEE78A
:10023000FEE7FEE7FEE7FEE7FEE7FEE704480549C6
:10024000054A064B70470000B515000885010008F7
:10025000C0000020C0060020C0020020C002002014
:1002600053EA020C00F069802DE9F04B4FF00006D4
:10027000002B1FBFB3FA83F503FA05F424FA05F641
:100280005E4012BF1643B2FA82F502FA05F4C5F1D8
:1002900020051EBF22FA05FC44EA0C04203556EA6C
:1002A000044C4FEA144418BF641C4FF000084FF090
:1002B0000009904271EB030C39D3002919BFB1FA40
:1002C00081F701FA07F6B0FA80F700FA07F6C7F1EE
:1002D00020071EBF20FA07FC46EA0C062037B6FBB3
:1002E000F4FCA7EB0507103F07F01F0BCBF120062E
:1002F0002CFA06F60CFA0BFB44BFB3460026202F5F
:10030000A4BF5E464FF0000B5BEA060C08BF4FF03F
:10031000010B19EB0B0948EB0608ABFB027C06FB53
:1003200002CC0BFB03CCC01B71EB0C01C1E70B46ED
:10033000024641464846BDE8F08B13B5084318BF56
:100340004FF0FF300146AFF30080BDE81C4070471E
:100350004FF0000200B5134694469646203922BF5E
:10036000A0E80C50A0E80C50B1F12001BFF4F7AFA9
:10037000090728BFA0E80C5048BF0CC05DF804EB8B
:10038000890028BF40F8042B08BF704748BF20F8F9
:10039000022B11F0804F18BF00F8012B70477047F7
:1003A00070477047754600F02BF8AE460500694669
:1003B000534620F00700854618B020B5FFF73EFFF2
:1003C000BDE820404FF000064FF000074FF0000856
:1003D0004FF0000BAC46ACE8C009ACE8C009ACE893
:1003E000C009ACE8C00921F007018D46704710B57F
:1003F0000446AFF300802046BDE81040FFF709BF78
:10040000004870471000002001491820ABBEFEE7ED
:100410002600020070470000FEE700007047000061
:10042000B0B5044600F0EAF8054640F20000C2F21A
:1004300000000078611C18BF044400BF00F0DEF823
:10044000401BA042FAD3B0BD2DE9F04F82B00C683A
:10045000002C00F0C98000F13E4742F2000507F190
:10046000FF77C4F20205092243F6004E4FEAB72691
:10047000A84208BF0822C4F2010E082E38BF4FEA76
:10048000B722002600274FF0000800920BE000BFC3
:100490000C6808F1010834FA08F207F1040706F1C4
:1004A000020600F0A180012202FA08FC14EA0C09FD
:1004B000EED0D1F804B003220BF00304651EB24065
:1004C000012D6FEA020A11D88268CD6802EA0A0299
:1004D000B5402A4382604268CBF3001522EA0C0241
:1004E00005FA08F52A43426004E000BF032C01D15D
:1004F00003241DE0C2688D6802EA0A02B5402A435F
:10050000022CC26014D16FF0030202EA58020244C6
:10051000D2F820C007F01C040F230D69A3402CEA79
:100520000303A5402B431362D1F804B00BF003047E
:10053000026804FA06F302EA0A021A431BF4403F77
:100540000260A5D0002243F644030192C4F20203E4
:100550001A684FF6084C42F480421A601A68CFF6C7
:10056000FF7C02F480420192019A28F00302724457
:1005700052F80C3007F00C050F24AC40A343009C4C
:1005800004FA05F52B4342F80C30DEF808204B68DE
:1005900042EA090543F60C4CDC0258BF22EA090581
:1005A000CEF80850C4F2010CDCF800209C0242EAAC
:1005B000090558BF22EA0905CCF80050DEF80420EE
:1005C0009C0342EA090558BF22EA0905CEF8045007
:1005D000DEF80020DB0342EA090558BF22EA0905DC
:1005E000CEF8005054E700BF02B0BDE8F08F000025
:1005F000002A08BF090481617047000040F2B8007A
:10060000C2F200000068704740F2000040F2B801FA
:10061000C2F20000C2F2000100780A6810440860CB
:100620007047000080B543F60040C4F20200016844
:1006300041F400710160016841F48061016001686A
:1006400041F480710160032000F088F80F2000F071
:1006500005F800F027F8002080BD000070B540F2DA
:100660000006C2F2000640F208013278C2F2000130
:100670004FF47A730968B3FBF2F20446B1FBF2F16E
:10068000084600F0FBFA0F2C4FF0010508D838B9E6
:100690004FF0FF3021460022002500F033F874604F
:1006A000284670BD82B0002043F640010190C4F29C
:1006B00002014A6842F480424A604A6802F4804279
:1006C0000192019A0090086840F080500860086824
:1006D00000F080500090009802B07047002848BF9A
:1006E0007047C1B200F01F00012202FA00F04EF282
:1006F0000012CEF2000242EAD10121F003010860AB
:100700007047000010B54EF60C5CCEF2000CDCF821
:100710000030C3F3022E8EF00704042C28BF0424FB
:10072000BEF103034FF0FF3E0EFA04F438BF00237E
:10073000A14399400EFA03F39A43114300F00F02CC
:1007400000F160430901043A03F564436244002860
:1007500048BF02F10C03197010BD00004EF60C5199
:10076000CEF200010A684FF6FF031A4060F30A2236
:1007700042F0806040F0FD70086070472DE9F04164
:10078000002800F0C78043F60808C4F202080446B7
:10079000D8F8F8030D4600F00F00884208D288F818
:1007A000F853D8F8F80300F00F00A84240F0B280E8
:1007B0002068810717D5410705D5D8F8001041F406
:1007C000E051C8F80010010705D5D8F8001041F431
:1007D0006041C8F80010D8F80010A26821F0F001BC
:1007E0001143C8F80010C00720D1D8F8F80300F072
:1007F0000F00A84208D988F8F853D8F8F80300F099
:100800000F00A84240F08680206841071CD40007F2
:1008100024D4D8F8000000F00C0008282DD00428BB
:100820004ED147F64000C0F27D104DE060680228CE
:1008300064D001286AD158F8081C89035CBF0120E4
:10084000BDE8F0816AE000BFD8F80010E26821F44A
:10085000E0511143C8F800100007DAD5D8F80000BD
:10086000216920F4604040EAC100C8F80000D8F8CF
:10087000000000F00C000828D1D158F8040C58F8FA
:10088000041C58F8043C490247F64001C0F27D11AF
:1008900000F03F02C3F388105CBF42F20041C0F297
:1008A000F401A1FB00010023FFF7DAFC58F8041C57
:1008B0000222C1F3014102EB4101B0FBF1F003E080
:1008C00042F20040C0F2F400D8F8001041F69A124B
:1008D000C1F30311C0F60002515C40F2080220FA95
:1008E00001F140F20400C2F200000068C2F200020E
:1008F0001160FFF7B3FE0020BDE8F08158F8081C36
:1009000089015CBF0120BDE8F08107E058F8081CB0
:10091000890703D40120BDE8F08100BFD8F800109A
:1009200021F003010843C8F80000FFF767FE064600
:1009300041F28837D8F80000616800F00C00B0EB95
:10094000810F3FF452AFFFF759FE801BB842F1D937
:100950000320BDE8F08100002DE9F04182B00028BD
:1009600000F08E800446007843F60006C007C4F20B
:1009700002062FD0B06800F00C00042806D13068C1
:10098000800327D5606828BB7AE000BFB06800F01C
:100990000C00082802D170684002F0D46068B07082
:1009A0006568FFF72BFE002D054610D030688003E8
:1009B00010D4FFF723FE401B6428F7D9F7E000BFEF
:1009C000FFF71CFE401B64284FF0030054D830682A
:1009D0008003F5D4207880071AD5B06810F00C0F8A
:1009E00009D0B06800F00C00082840F091807068D1
:1009F000400200F18D803068800702D5E068012850
:100A00003ED13068216920F0F80040EAC100306032
:100A10002078000738D4207840074DD4A56955B315
:100A2000B06800F00C00082840F0C680012D27D0E7
:100A30007068E16900F480028A4221D1216A00F0E5
:100A40003F028A421CD147F6C071626A0140B1EB95
:100A5000821F15D1A16A4FF6FF73C903994300F4B1
:100A60004032A1F580318A420AD1E16A00F070601B
:100A7000B0EB016F04D1002002B0BDE8F08100BFEF
:100A8000012002B0BDE8F0816069002840F200005A
:100A9000C4F247207CD00121C0F8801EFFF7AEFDD4
:100AA000054600BF706F8007B5D4FFF7A7FD401B58
:100AB0000228F7D97BE000BF306C10F080580AD1D3
:100AC00000200190306C40F080503064306C00F0B9
:100AD00080500190019847F20007C4F2000738687F
:100AE00040F4807038603868C00527D4386840F416
:100AF00080703860FFF782FD054600BF3868C0058A
:100B00001CD4FFF77BFD401B0228F7D94FE000BF44
:100B1000E068002872D00020C4F247200121016063
:100B2000FFF76CFD054600BF306880073FF569AFF1
:100B3000FFF764FD401B0228F6D938E0A06886F86C
:100B40007000A568FFF75AFD002D054641F2883771
:100B500012D000BF306F800711D4FFF74FFD401B4C
:100B6000B842F7D923E000BFFFF748FD401BB84269
:100B70004FF003003FF680AF306F8007F4D4B8F138
:100B8000000F7FF44BAF306C20F08050306445E7AD
:100B90000021C0F8801EFFF731FD0546706F800709
:100BA0007FF539AFFFF72AFD401B0228F6D9032055
:100BB00002B0BDE8F08100BF0027C4F24727002043
:100BC0003866FFF71BFD022D05460BD1306880010A
:100BD00028D5FFF713FD401B64284FF00300F5D91B
:100BE0004AE700BF306880017FF545AFFFF706FD9B
:100BF000401B64284FF00300F4D93DE70020C4F205
:100C0000472000210160FFF7F9FC054630688007A6
:100C10007FF5FEAEFFF7F2FC401B02284FF0030009
:100C2000F4D929E7706848F20001CFF2BC0104F161
:100C30001C0500EA010C2ECDE46A41EA0C01ED032B
:100C40004FF6FF70114325EA000041EA8311A0F539
:100C5000803041EA04610843706001203866FFF784
:100C6000CDFC0446306880013FF505AFFFF7C6FCB8
:100C7000001B64284FF00300F4D9FDE6411E00205C
:100C8000B0EB116F1CBF012070474EF21002CEF284
:100C9000000251604EF62351CEF20001F0230B709A
:100CA0000721906011607047704700007047000096
:100CB00010B590F83C20012A4FF0020251D080F884
:100CC0003D200268D2F804E0D2F808C00C682EF08B
:100CD0007003234341F2FF74C4F20004A242536044
:100CE0000EDC40F2FF73C4F200039A4216DCB2F14C
:100CF000804F2BD040F20043C4F2000324E000BF39
:100D000040F2FF33C4F201039A4213DC41F60003C0
:100D1000C4F200039A4219D0002313E040F6000306
:100D2000C4F200039A4211D040F60043C4F200031B
:100D30000AE000BF44F20003C4F201039A4205D066
:100D400040F20043C4F201039A4204D149682CF0F6
:100D50008003194391600121002280F83D1080F842
:100D60003C20104610BD0000002804BF0120704741
:100D700010B5044690F83D0028B9002084F83C00E6
:100D8000204600F01FF8022084F83D002068211D55
:100D900000F018FC012084F8460084F83E0084F836
:100DA0003F0084F8400084F8410084F8420084F851
:100DB000430084F8440084F8450084F83D00002096
:100DC00010BD000080B582B000680021C4F20101AE
:100DD00088421CBF02B080BD0020019043F6440051
:100DE000C4F202000168002241F0010101600068C4
:100DF000002100F00100019001981920FFF782FC0A
:100E0000192002B0BDE88040FFF768BC90F83D10A3
:100E100001291CBF01207047022180F83D100068A5
:100E200041F2FF71C4F2000188420DDC40F2FF7113
:100E3000C4F20001884215DCB0F1804F2AD040F2A4
:100E40000041C4F2000123E040F2FF31C4F201018D
:100E5000884213DC41F60001C4F20001884219D037
:100E6000002113E040F60001C4F20001884211D0D5
:100E700040F60041C4F200010AE000BF44F2000164
:100E8000C4F20101884205D040F20041C4F20101E0
:100E9000884206D1816801F00701062904BF0020BD
:100EA0007047016841F001010160002070470000B7
:100EB00080B590F83C20012A4FF0020200F0C28079
:100EC00080F83D20D0F800C04FF67772DCF808308B
:100ED00023EA0202CCF808200B684F2B28DC1F2BDA
:100EE00044DD202B45D0302B43D0402B40F0AC804C
:100EF000D1F804E0C968DCF82030DCF8202022F0CA
:100F00000102CCF82020DCF8182022F0F00242EA9E
:100F1000011123F00A0242EA0E02CCF81810CCF8B4
:100F20002020DCF8081041F0470121F0300180E07A
:100F30006F2B27DDB3F5005F48D0B3F5805F7AD023
:100F4000702B40F08180D1E901E3C968DCF808200A
:100F500043EA0E0322F47F4243EA01211143CCF815
:100F60000810DCF8081041F0770162E00BB1102B9B
:100F70006AD1DCF8081021F07001194341F0070133
:100F800057E000BF502B35D0602B5DD1D1F804E085
:100F9000C968DCF82030DCF8202022F01002CCF800
:100FA0002020DCF8182022F4704242EA013123F0BC
:100FB000A00242EA0E12CCF81810CCF82020DCF87F
:100FC000081041F0670121F0100132E0D1E901E39E
:100FD000C968DCF8082043EA0E0322F47F4243EAA2
:100FE00001211143CCF80810DCF8081041F48041CD
:100FF0001FE000BFD1F804E0C968DCF82030DCF85D
:10100000202022F00102CCF82020DCF8182022F069
:10101000F00242EA011123F00A0242EA0E02CCF881
:101020001810CCF82020DCF8081041F0570121F00E
:101030002001CCF808100022012180F83D10002189
:1010400080F83C10104680BD0122F5E77047000093
:1010500070B504460068C5680669B10716D515F075
:10106000020113D06FF00201016101212177806933
:10107000800703D02046FFF7E9FF05E0204600F097
:101080008FF8204600F08EF800202077700719D5E1
:1010900015F0040016D020686FF0040101610221F0
:1010A0002177806910F4407F04D02046FFF7CEFFFF
:1010B00006E000BF204600F073F8204600F072F80A
:1010C00000202077300717D515F0080014D02068CD
:1010D0006FF00801016104212177C069800703D006
:1010E0002046FFF7B3FF05E0204600F059F8204600
:1010F00000F058F800202077F00619D515F0100000
:1011000016D020686FF01001016108212177C069B5
:1011100010F4407F04D02046FFF798FF06E000BFA0
:10112000204600F03DF8204600F03CF800202077F3
:10113000F00718BF15F0010002D1300609D412E003
:1011400020686FF001010161204600F02DF83006A3
:1011500009D515F0800006D020686FF0800101618C
:101160002046FFF7A1FD700609D515F0400006D016
:1011700020686FF040010161204600F017F8B006CA
:1011800058BF70BD15F0200008D021686FF0200214
:1011900020460A61BDE87040FFF788BD70BD0000C1
:1011A0007047000070470000704700007047000063
:1011B000FEE70000B0B540F60044C4F20204054664
:1011C000204680210022FFF713FAC5F300122046C3
:1011D0000121FFF70DFAC5F3401220460221FFF767
:1011E00007FAC5F3801220460421FFF701FAEA0945
:1011F00020460821FFF7FCF9204620210122FFF7B5
:10120000F7F90120FFF70CF9204620210022FFF713
:10121000EFF90120FFF704F905F001022046012152
:10122000FFF7E6F9C5F3400220460221FFF7E0F997
:10123000C5F3800220460421FFF7DAF9C5F3C002A6
:1012400020460821FFF7D4F9204620210122FFF78C
:10125000CFF90120FFF7E4F8204620210022FFF714
:10126000C7F90120BDE8B040FFF7DAB810B5282073
:10127000FFF7D6F840F60044C4F2020420460121EC
:101280000122FFF7B5F9204602210122FFF7B0F94C
:10129000204604210022FFF7ABF920460821002256
:1012A000FFF7A6F9204620210122FFF7A1F901202E
:1012B000FFF7B6F8204620210022FFF799F9012018
:1012C000FFF7AEF80520FFF7ABF820460121012219
:1012D000FFF78EF9204602210122FFF789F9204607
:1012E00004210022FFF784F9204608210022FFF79D
:1012F0007FF9204620210122FFF77AF90120FFF72C
:101300008FF8204620210022FFF772F90120FFF715
:1013100087F80120FFF784F8204601210122FFF71A
:1013200067F9204602210122FFF762F920460421D5
:101330000022FFF75DF9204608210022FFF758F947
:10134000204620210122FFF753F90120FFF768F81A
:10135000204620210022FFF74BF90120FFF760F81B
:101360000120FFF75DF8204601210022FFF740F938
:10137000204602210122FFF73BF9204604210022EA
:10138000FFF736F9204608210022FFF731F9204601
:1013900020210122FFF72CF90120FFF741F8204618
:1013A00020210022FFF724F90120FFF739F801205E
:1013B000FFF736F82820FFF7FDFE0C20FFF7FAFEB6
:1013C0000620FFF7F7FE0120FFF7F4FE0220BDE83C
:1013D0001040FFF725B80000FEE70000FEE7000020
:1013E0007047000070470000F0B581B040F2004443
:1013F000C4F2020405462046012100220027FFF71F
:10140000F7F840F27006C2F200063068476200BF8B
:10141000416A672908D8416A672905D8416A67295E
:1014200002D8416A6829F3D305F001022046012160
:10143000FFF7DEF830680021416200BF416A67298A
:1014400008D8416A672905D8416A672902D8416AE4
:101450006829F3D3C5F3400220460121FFF7C8F8FD
:1014600030680021416200BF416A672908D8416A9B
:10147000672905D8416A672902D8416A6829F3D3E8
:10148000C5F3800220460121FFF7B2F83068002141
:10149000416200BF416A672908D8416A672905D8B7
:1014A000416A672902D8416A6829F3D3C5F3C002AB
:1014B00020460121FFF79CF830680021416200BFFF
:1014C000416A672908D8416A672905D8416A6729AE
:1014D00002D8416A6829F3D3C5F3001220460121DE
:1014E000FFF786F830680021416200BF416A672932
:1014F00008D8416A672905D8416A672902D8416A34
:101500006829F3D3C5F3401220460121FFF770F894
:1015100030680021416200BF416A672908D8416AEA
:10152000672905D8416A672902D8416A6829F3D337
:10153000C5F3801220460121FFF75AF830680021D8
:10154000416200BF416A672908D8416A672905D806
:10155000416A672902D8416A6829F3D3EA0920461B
:101560000121FFF745F8306800214162416A67298F
:1015700008D8416A672905D8416A672902D8416AB3
:101580006829F3D3204601210122FFF731F83068A2
:1015900000214162416A672908D8416A672905D854
:1015A000416A672902D8416A6829F3D301B0F0BDC6
:1015B000FFF72AB87047000040F27000C2F2000046
:1015C000FFF746BD10B540F6FF3E0368C4F2000EBB
:1015D00040F2004C7045C4F2010C27DCB0F1804FA2
:1015E00031D040F20042C4F2000290422BD040F6CB
:1015F0000002C4F20002904225D041F6FF72C4F20C
:101600000002904229DC70453CDCB0F1804F5FD095
:1016100040F20042C4F20002904259D040F600026B
:10162000C4F20002904253D056E000BF40F60042A0
:10163000C4F20002904206D0604504D00022C4F2F9
:1016400001029042D9D14A6823F07003134341F656
:10165000FF72C4F200029042D5DD43F6FF72C4F27D
:101660000102904222DC42F20002C4F200029042E7
:101670002ED00022C4F20102904229D0604527D02A
:101680002AE000BF40F60042C4F2000290421FD0A0
:1016900041F60002C4F20002904219D041F6004225
:1016A000C4F20002904213D016E000BF44F20002E0
:1016B000C4F2010290420BD044F60002C4F20102CF
:1016C000904205D044F20042C4F20102904203D19C
:1016D000CA6823F44073134323F080024B69D1F8A6
:1016E00000E08C681A430260C46240F48062C0F873
:1016F00028E0624504BF0969016301214161016974
:10170000C90708BF10BD016921F00101016110BDC9
:10171000FEE7000092B0FEF785FF06AC201D2C21ED
:10172000FEF716FE022006900120099010200A9074
:10173000002520460C95FFF70FF928B1EFF3108034
:1017400072B600BFFEE700BF0F20CDE90005684676
:101750000021CDE902550495FFF710F820B1EFF311
:10176000108072B6FEE700BF002643F630000A96EE
:101770000096C4F20200016841F2000841F0100135
:1017800001600168C4F2020801F0100100910099A3
:1017900000960168002241F00401016001680525FE
:1017A00001F00401009100990096016841F00101E7
:1017B0000160016801F00101009100990096016843
:1017C00041F008010160016801F0080100910099F1
:1017D0000096016841F0020101600068052100F0F7
:1017E0000200009000984046FEF702FFA8F5006452
:1017F00020464FF400710022FEF7FAFEA8F580574C
:1018000038464FF480710022FEF7F2FEA8F5806B97
:101810005846FF210022FEF7EBFEA8F54069484636
:1018200028210022FEF7E4FE069506AD4FF0010ADE
:1018300040462946CDE907A60996FEF705FE4FF476
:101840005450CDE90606404629460896FEF7FCFDB1
:101850004FF40070CDE9060A20462946CDE9086616
:10186000FEF7F2FD4FF48070CDE9060A38462946AE
:10187000CDE90866FEF7E8FDFF20CDE9060A5846E7
:101880002946CDE90866FEF7DFFD2820CDE9060AE6
:1018900048462946CDE90866FEF7D6FDFFF7E6FC87
:1018A00040F27000A8F58831C2F2000040F2E73241
:1018B00001600F210996CDE90766CDE90066C0E910
:1018C0000116C0E90326C0E90566FFF74DFA28B105
:1018D000EFF3108072B600BFFEE700BF4FF48050F8
:1018E000069040F27000C2F2000006A9FFF7E0FA8D
:1018F00020B1EFF3108072B6FEE700BF40F2700037
:10190000C2F200006946FFF7D3F928B1EFF3108067
:1019100072B600BFFEE700BF40F27000C2F20000E6
:10192000FFF774FA4820FFF75FFD6520FFF75CFDC5
:101930006C20FFF759FD6C20FFF756FD6F20FFF775
:1019400053FD2C20FFF750FD2020FFF74DFD5320C5
:10195000FFF74AFD6F20FFF747FD6620FFF744FDC4
:101960007420FFF741FD5520FFF73EFD4120FFF7B2
:101970003BFD5220FFF738FD5420FFF735FD2120B5
:10198000FFF732FD0D20FFF72FFD0A20FFF72CFD9A
:101990004FF47A70FEF744FDC4E700000000000039
:1019A000000001020304060708090000D01900081E
:1019B0000000002010000000C0010008E01900082D
:1019C00010000020B0060000DC010008000000004C
:1019D00001000000100000000024F40000000000DE
:040000050800018569
:00000001FF
