:020000040800F2
:100000008006002035020008BD0D0008B50D00086F
:10001000B90D000801050008490E000800000000A5
:10002000000000000000000000000000ED0D0008CE
:100030000505000800000000C10D0008310E000891
:100040004F0200084F0200084F0200084F0200084C
:100050004F0200084F0200084F0200084F0200083C
:100060004F0200084F0200084F0200084F0200082C
:100070004F0200084F0200084F0200084F0200081C
:100080004F0200084F0200084F0200080000000065
:100090000000000000000000000000004F02000807
:1000A0004F0200084F0200084F0200084F020008EC
:1000B0004F0200084F0200084F0200084F020008DC
:1000C0004F0200084F0200084F0200084F020008CC
:1000D0004F0200084F0200084F0200080000000015
:1000E0004F0200084F0200084F0200080000000005
:1000F0000000000000000000000000004F020008A7
:10010000000000004F0200084F0200084F020008E4
:1001100000000000000000000000000000000000DF
:100120004F0200084F0200084F0200084F0200086B
:100130004F02000800000000000000000000000066
:100140000000000000000000000000004F02000856
:100150004F0200084F0200084F0200084F0200083B
:100160004F0200084F0200080000000000000000DD
:10017000000000000000000000000000000000007F
:10018000000000004F020008000000000000000016
:100190004F02000800F002F800F03CF80AA090E8D6
:1001A000000C82448344AAF10107DA4501D100F032
:1001B00031F8AFF2090EBAE80F0013F0010F18BFC3
:1001C000FB1A43F001031847540E0000740E0000A0
:1001D000103A24BF78C878C1FAD8520724BF30C873
:1001E00030C144BF04680C60704700000023002445
:1001F00000250026103A28BF78C1FBD8520728BF37
:1002000030C148BF0B6070471FB500F0F2FE1FBD44
:1002100010B510BD00F0D0F81146FFF7F5FF00F063
:1002200015FE00F0EEF803B4FFF7F2FF03BC00F098
:10023000F5F800000948804709480047FEE7FEE757
:10024000FEE7FEE7FEE7FEE7FEE7FEE7FEE7FEE786
:1002500004480549054A064B70470000350E000862
:100260009501000880000020800600208002002008
:100270008002002053EA020C00F069802DE9F04B67
:100280004FF00006002B1FBFB3FA83F503FA05F405
:1002900024FA05F65E4012BF1643B2FA82F502FA5E
:1002A00005F4C5F120051EBF22FA05FC44EA0C0442
:1002B000203556EA044C4FEA144418BF641C4FF032
:1002C00000084FF00009904271EB030C39D300296C
:1002D00019BFB1FA81F701FA07F6B0FA80F700FA10
:1002E00007F6C7F120071EBF20FA07FC46EA0C06F6
:1002F0002037B6FBF4FCA7EB0507103F07F01F0BF8
:10030000CBF120062CFA06F60CFA0BFB44BFB346E1
:100310000026202FA4BF5E464FF0000B5BEA060CC0
:1003200008BF4FF0010B19EB0B0948EB0608ABFBBC
:10033000027C06FB02CC0BFB03CCC01B71EB0C0157
:10034000C1E70B46024641464846BDE8F08B13B56F
:10035000084318BF4FF0FF300146AFF30080BDE8FF
:100360001C4070474FF0000200B513469446964675
:10037000203922BFA0E80C50A0E80C50B1F12001B8
:10038000BFF4F7AF090728BFA0E80C5048BF0CC066
:100390005DF804EB890028BF40F8042B08BF7047C4
:1003A00048BF20F8022B11F0804F18BF00F8012B36
:1003B0007047704770477047754600F02BF8AE469F
:1003C00005006946534620F00700854618B020B561
:1003D000FFF73EFFBDE820404FF000064FF000075A
:1003E0004FF000084FF0000BAC46ACE8C009ACE899
:1003F000C009ACE8C009ACE8C00921F007018D468E
:10040000704710B50446AFF300802046BDE81040A9
:10041000FFF709BF0048704710000020014918206D
:10042000ABBEFEE72600020070470000F0B581B0C9
:1004300040F27006C2F20006317803291AD8044649
:10044000DFE801F0021C2C320025C4F20205284628
:100450004FF480710122012700F044F905F5006096
:100460004FF40071012200F03DF9012C46D13770A4
:1004700001B0F0BD0020307040E000BF0020C4F2A9
:1004800002004FF48071012200F02CF9022C35D1CA
:10049000022030700020B08001B0F0BDB088B0F50F
:1004A0007A7F0FD2002211E00020C4F202004FF444
:1004B0008071002200F016F9012C1FD1012030704C
:1004C00001B0F0BD00097C2814D801220020C4F23C
:1004D00002004FF4807100F005F9142000F014F8C8
:1004E000B0881430032CB08008D10320307001B0E4
:1004F000F0BD00BF0020032CB080F6D001B0F0BDED
:10050000FEE7000070470000B0B5044600F0F0F8C8
:10051000054640F20000C2F200000078611C18BFDE
:10052000044400BF00F0E4F8401BA042FAD3B0BD81
:100530002DE9F04F82B000F13E4241F2000502F198
:10054000FF77C4F20205072243F6004E4FEAB726B2
:10055000A84208BF0422C4F2010E042E38BF4FEA9D
:10056000B7220125002600274FF00008009208E07E
:1005700008F101080437B8F1100F06F1020600F087
:10058000A7800C6805FA08F914EA090FF0D0D1F831
:1005900004B003220BF0030CACF10104B240012CB7
:1005A0006FEA020A10D88268CC6802EA0A02B440F4
:1005B000224382604268CBF3001422EA090204FA63
:1005C00008F42243426005E0BCF1030F02D14FF072
:1005D000030C20E0C2688C6802EA0A02B44022439D
:1005E000BCF1020FC26016D16FF0030202EA58029A
:1005F0000244D2F820C007F01C050F230C69AB4061
:100600002CEA030304FA05F52B431362D1F804B076
:1006100001250BF0030C02680CFA06F302EA0A0249
:100620001A431BF4403F0260A2D0002243F6440369
:100630000192C4F202031A684FF6084C42F4804259
:100640001A601A68CFF6FF7C02F480420192019A88
:1006500028F00302724452F80C3007F00C050F2406
:10066000AC40A343009C04FA05F52B4342F80C3040
:10067000DEF808204B6842EA090543F60C4CDC0220
:1006800058BF22EA0905CEF80850C4F2010CDCF884
:1006900000209C0242EA090558BF22EA0905CCF86D
:1006A0000050DEF804209C0342EA090558BF22EA04
:1006B0000905CEF80450DEF80020DB0342EA090504
:1006C00058BF22EA0905CEF80050012550E700BFC7
:1006D00002B0BDE8F08F00000069084018BF01209B
:1006E00070470000002A08BF0904816170470000BC
:1006F00040F27800C2F200000068704740F200004B
:1007000040F27801C2F20000C2F2000100780A68EB
:10071000104408607047000080B543F60040C4F202
:100720000200016841F400710160016841F48061D8
:100730000160016841F480710160032000F074F8E9
:100740000F2000F005F800F027F8002080BD000021
:1007500070B540F20006C2F2000640F2080132789D
:10076000C2F200014FF47A730968B3FBF2F2044657
:10077000B1FBF2F1084600F007FB0F2C4FF001052A
:1007800008D838B94FF0FF3021460022002500F08C
:100790001FF87460284670BD82B0002043F6400107
:1007A0000190C4F202014A6842F480424A604A68F9
:1007B00002F480420192019A0090086840F0805053
:1007C0000860086800F080500090009802B0704700
:1007D00010B54EF60C5CCEF2000CDCF80030C3F322
:1007E000022E8EF00704042C28BF0424BEF103035C
:1007F0004FF0FF3E0EFA04F438BF0023A1439940A6
:100800000EFA03F39A43114300F00F0200F1604324
:100810000901043A03F564436244002848BF02F129
:100820000C03197010BD00004EF60C51CEF2000101
:100830000A684FF6FF031A4060F30A2242F0806014
:1008400040F0FD70086070472DE9F041002800F08D
:100850008B8043F60808C4F202080446D8F8F8036F
:100860000D4600F00700884207D288F8F853D8F800
:10087000F80300F00700A84276D12068810717D559
:10088000410705D5D8F8001041F4E051C8F8001030
:10089000010705D5D8F8001041F46041C8F80010F0
:1008A000D8F80010A26821F0F0011143C8F8001038
:1008B000C0073FD1D8F8F80300F00700A84207D9D5
:1008C00088F8F853D8F8F80300F00700A8424BD195
:1008D0002068410707D5D8F80010E26821F4E051FC
:1008E0001143C8F80010000708D5D8F800002169A6
:1008F00020F4604040EAC100C8F8000000F054F85D
:10090000D8F8001041F20C02C1F30311C0F6000246
:10091000515C40F2080220FA01F140F20400C2F2F8
:1009200000000068C2F200021160FFF711FF002012
:10093000BDE8F0816068811E022907D258F8081CC2
:1009400089015CBF0120BDE8F08111E0012807D1D9
:1009500058F8081C89035CBF0120BDE8F08107E05E
:1009600058F8081C890703D40120BDE8F08100BFB6
:10097000D8F8001021F003010843C8F80000FFF781
:10098000B7FE064641F28837D8F80000616800F0EB
:100990000C00B0EB810F8DD0FFF7AAFE801BB84290
:1009A000F2D90320BDE8F08110B543F60404C4F287
:1009B0000204606800F00C0008280BD0042819BF5E
:1009C00042F20040C0F2F40047F64000C0F27D1051
:1009D00010BD00BF206821682368490247F6400126
:1009E000C0F27D1100F03F02C3F388105CBF42F2F9
:1009F0000041C0F2F401A1FB00010023FFF73AFC23
:100A000021680222C1F3014102EB4101B0FBF1F088
:100A100010BD00002DE9F04182B0002868D00446E6
:100A2000007843F60006C007C4F202060BD0B06897
:100A300000F00C00042840F09F803068800302D54D
:100A40006068002854D0207880071AD5B06810F06C
:100A50000C0F09D0B06800F00C00082840F0A68008
:100A60007068400200F1A2803068800702D5E0681B
:100A700001283DD13068216920F0F80040EAC1002A
:100A800030602078000737D4207840074CD4A5691F
:100A900055B3B06800F00C00082840F0BB80012D71
:100AA00026D07068E16900F480028A4220D1216A70
:100AB00000F03F028A421BD147F6C071626A0140D2
:100AC000B1EB821F14D1A16A4FF6FF73C90399439A
:100AD00000F44032A1F580318A4209D1E16A00F088
:100AE0007060B0EB016F03D1002002B0BDE8F0816F
:100AF000012002B0BDE8F0816069002840F20000EA
:100B0000C4F2472076D00121C0F8801EFFF7F0FD27
:100B1000054600BF706F8007B6D4FFF7E9FD401BA4
:100B20000228F7D9DDE000BF306C10F080580AD100
:100B300000200190306C40F080503064306C00F048
:100B400080500190019847F20007C4F2000738680E
:100B5000C00541D4386840F480703860FFF7C8FDA4
:100B6000054600BF3868C00536D4FFF7C1FD401BFD
:100B70000228F7D9B5E000BFB06800F00C000828E3
:100B800003D1706840023FF558AF6068B0F5803F10
:100B900007D0B0F5A02F40F08D80306840F4802061
:100BA0003060306840F4803030608DE0E0680028CC
:100BB00052D00020C4F2472001210160FFF798FDC8
:100BC000054600BF306880073FF554AFFFF790FD42
:100BD000401B0228F6D984E0A068012805D005282A
:100BE0004ED1306F40F004003067306F40F00100AC
:100BF00030674FE00021C0F8801EFFF779FD054601
:100C0000706F80077FF540AFFFF772FD401B022831
:100C1000F6D966E00027C4F2472700203866FFF7C0
:100C200067FD022D05460BD1306880015ED5FFF7C8
:100C30005FFD401B02284FF00300F5D955E700BFC8
:100C4000306880017FF550AFFFF752FD401B02284E
:100C50004FF00300F4D948E70020C4F247200021F8
:100C60000160FFF745FD0546306880077FF509AF55
:100C7000FFF73EFD401B02284FF00300F4D934E794
:100C8000316F002821F001013167316F21F004013B
:100C900031674DD0FFF72CFD054641F2883700BF84
:100CA000306F800756D4FFF723FD401BB842F7D9B9
:100CB00017E000BF3168002821F4803131603168CD
:100CC00021F4802131604FD0FFF712FD054600BFAF
:100CD000306880033FF5B7AEFFF70AFD401B64287C
:100CE000F6D9032002B0BDE8F08100BF04F11C0575
:100CF0002FCD084340EA8210D9034FF6FF7291438B
:100D0000A1F5803140EA0560084370600120386633
:100D1000FFF7EEFC044600BF306880013FF5E4AE0B
:100D2000FFF7E6FC001B02284FF00300F4D9DCE6D5
:100D3000FFF7DEFC054641F2883700BF306F8007C1
:100D400008D5FFF7D5FC401BB8424FF00300F5D99A
:100D5000CBE600BFB8F1000F7FF499AE306C20F005
:100D60008050306493E600BFFFF7C2FC054600BF29
:100D7000306880037FF567AEFFF7BAFC401B64283C
:100D80004FF00300F4D9B0E6411E0020B0EB116F24
:100D90001CBF012070474EF21002CEF200025160DB
:100DA0004EF62351CEF20001F0230B700721906024
:100DB00011607047FEE70000FEE70000FEE700005C
:100DC000704700000138C0B2032884BF012070477B
:100DD00004A131F8101041F20000C4F20200FFF744
:100DE0007BBC00BF00200010000400017047000021
:100DF00010B540F20044C4F2020404F540608021C2
:100E0000FFF76AFC80B120460421FFF765FC68B15A
:100E100004F580601021FFF75FFC014601200029E6
:100E200008BF032010BD00BF012010BD022010BD6F
:100E3000FFF764BC4EF68850CEF20000016841F422
:100E40007001016070470000FEE7000092B043F6B9
:100E5000300547F20007C4F20205C4F20007FFF7AD
:100E60005BFC06AC201D2C21FFF77CFA00260596C2
:100E7000CDE90366CDE9016600962869022140F0BC
:100E800080502861286900F08050009000980096FA
:100E9000386861F38F303860386800F44040009063
:100EA00000980120099010200A90204606910C9687
:100EB000FFF7B0FD10B172B6FEE700BF0F20CDE91D
:100EC000010601A80021CDE903660596FFF7BCFCE9
:100ED00010B172B6FEE700BF00240A94019428689E
:100EE00007F5C83640F00100286028684FF480718B
:100EF00000F001000190019801942868002240F060
:100F00000400286028684FF4807800F00400019005
:100F100001980194286840F002002860286800F0D9
:100F20000200019001980194286840F010002860A8
:100F3000286800F01000019001983046FFF7D2FBBE
:100F400007F5CC3528464FF4007100224FF4007AA3
:100F5000FFF7C8FBCDF818800DF118084FF0010914
:100F600030464146CDE907940994FFF7E1FA284657
:100F70004146CDE906A9CDE90844FFF7D9FA10208A
:100F800006A981E8110228464146FFF7D1FA04205C
:100F900006A981E8110207F5CA304146FFF7C8FAF1
:100FA0004FF4565006A981E8110207F5D0304146AA
:100FB000FFF7BEFA40F27000C2F20000047040F287
:100FC0007400C2F20000048040F2760440F277051B
:100FD000C2F20004C2F200050120FFF7F3FE207008
:100FE0000220FFF7EFFE2870FFF702FFFFF71EFA5F
:100FF000F2E7F1EE100A4FF6FF71C0F2C03120EABD
:10100000010040F04070E1EE100A7047000000005F
:101010000000000001020304060708094010000850
:101020000000002010000000D0010008501000084F
:101030001000002070060000EC0100080000000015
:1010400001000000100000000024F4000000000077
:040000050800019559
:00000001FF
